{
  "contractName": "Evaluator",
  "abi": [
    {
      "inputs": [
        {
          "internalType": "contract ERC20TD",
          "name": "_TDERC20",
          "type": "address"
        },
        {
          "internalType": "contract ERC20Claimable",
          "name": "_claimableERC20",
          "type": "address"
        }
      ],
      "stateMutability": "nonpayable",
      "type": "constructor"
    },
    {
      "anonymous": false,
      "inputs": [
        {
          "indexed": false,
          "internalType": "address",
          "name": "erc20Address",
          "type": "address"
        },
        {
          "indexed": false,
          "internalType": "address",
          "name": "claimableERC20Address",
          "type": "address"
        }
      ],
      "name": "constructedCorrectly",
      "type": "event"
    },
    {
      "anonymous": false,
      "inputs": [
        {
          "indexed": false,
          "internalType": "string",
          "name": "ticker",
          "type": "string"
        },
        {
          "indexed": false,
          "internalType": "uint256",
          "name": "supply",
          "type": "uint256"
        }
      ],
      "name": "newRandomTickerAndSupply",
      "type": "event"
    },
    {
      "stateMutability": "payable",
      "type": "fallback"
    },
    {
      "inputs": [
        {
          "internalType": "address",
          "name": "",
          "type": "address"
        },
        {
          "internalType": "uint256",
          "name": "",
          "type": "uint256"
        }
      ],
      "name": "exerciceProgression",
      "outputs": [
        {
          "internalType": "bool",
          "name": "",
          "type": "bool"
        }
      ],
      "stateMutability": "view",
      "type": "function"
    },
    {
      "inputs": [
        {
          "internalType": "address",
          "name": "",
          "type": "address"
        }
      ],
      "name": "hasBeenPaired",
      "outputs": [
        {
          "internalType": "bool",
          "name": "",
          "type": "bool"
        }
      ],
      "stateMutability": "view",
      "type": "function"
    },
    {
      "inputs": [],
      "name": "nextValueStoreRank",
      "outputs": [
        {
          "internalType": "uint256",
          "name": "",
          "type": "uint256"
        }
      ],
      "stateMutability": "view",
      "type": "function"
    },
    {
      "inputs": [
        {
          "internalType": "address",
          "name": "",
          "type": "address"
        }
      ],
      "name": "studentExerciceSolution",
      "outputs": [
        {
          "internalType": "contract IExerciceSolution",
          "name": "",
          "type": "address"
        }
      ],
      "stateMutability": "view",
      "type": "function"
    },
    {
      "inputs": [
        {
          "internalType": "address",
          "name": "",
          "type": "address"
        }
      ],
      "name": "teachers",
      "outputs": [
        {
          "internalType": "bool",
          "name": "",
          "type": "bool"
        }
      ],
      "stateMutability": "view",
      "type": "function"
    },
    {
      "stateMutability": "payable",
      "type": "receive"
    },
    {
      "inputs": [],
      "name": "ex1_claimedPoints",
      "outputs": [],
      "stateMutability": "nonpayable",
      "type": "function"
    },
    {
      "inputs": [],
      "name": "ex2_claimedFromContract",
      "outputs": [],
      "stateMutability": "nonpayable",
      "type": "function"
    },
    {
      "inputs": [],
      "name": "ex3_withdrawFromContract",
      "outputs": [],
      "stateMutability": "nonpayable",
      "type": "function"
    },
    {
      "inputs": [],
      "name": "ex4_approvedExerciceSolution",
      "outputs": [],
      "stateMutability": "nonpayable",
      "type": "function"
    },
    {
      "inputs": [],
      "name": "ex5_revokedExerciceSolution",
      "outputs": [],
      "stateMutability": "nonpayable",
      "type": "function"
    },
    {
      "inputs": [],
      "name": "ex6_depositTokens",
      "outputs": [],
      "stateMutability": "nonpayable",
      "type": "function"
    },
    {
      "inputs": [],
      "name": "ex7_createERC20",
      "outputs": [],
      "stateMutability": "nonpayable",
      "type": "function"
    },
    {
      "inputs": [],
      "name": "ex8_depositAndMint",
      "outputs": [],
      "stateMutability": "nonpayable",
      "type": "function"
    },
    {
      "inputs": [
        {
          "internalType": "contract IExerciceSolution",
          "name": "studentExercice",
          "type": "address"
        }
      ],
      "name": "submitExercice",
      "outputs": [],
      "stateMutability": "nonpayable",
      "type": "function"
    },
    {
      "inputs": [
        {
          "internalType": "bytes32",
          "name": "_bytes32",
          "type": "bytes32"
        }
      ],
      "name": "bytes32ToString",
      "outputs": [
        {
          "internalType": "string",
          "name": "",
          "type": "string"
        }
      ],
      "stateMutability": "pure",
      "type": "function"
    }
  ],
  "bytecode": "0x60806040523480156200001157600080fd5b5060405162004e4538038062004e4583398181016040526200003791908101906200016e565b81600160006101000a81548173ffffffffffffffffffffffffffffffffffffffff021916908373ffffffffffffffffffffffffffffffffffffffff16021790555080600260006101000a81548173ffffffffffffffffffffffffffffffffffffffff021916908373ffffffffffffffffffffffffffffffffffffffff1602179055507faec105056259e6e944bb71151b9922f56b566fb88054f082eef397db7ccddf2a600160009054906101000a900473ffffffffffffffffffffffffffffffffffffffff16600260009054906101000a900473ffffffffffffffffffffffffffffffffffffffff1660405162000130929190620001c0565b60405180910390a150506200027d565b600081519050620001518162000249565b92915050565b600081519050620001688162000263565b92915050565b600080604083850312156200018257600080fd5b6000620001928582860162000157565b9250506020620001a58582860162000140565b9150509250929050565b620001ba81620001ed565b82525050565b6000604082019050620001d76000830185620001af565b620001e66020830184620001af565b9392505050565b6000620001fa8262000229565b9050919050565b60006200020e82620001ed565b9050919050565b60006200022282620001ed565b9050919050565b600073ffffffffffffffffffffffffffffffffffffffff82169050919050565b620002548162000201565b81146200026057600080fd5b50565b6200026e8162000215565b81146200027a57600080fd5b50565b614bb8806200028d6000396000f3fe6080604052600436106100ec5760003560e01c8063836a10b41161008a578063af6c4d1911610059578063af6c4d191461028a578063d4878938146102a1578063f0a47f78146102b8578063f4fdbb88146102f5576100f3565b8063836a10b4146102085780639201de551461021f578063a38ac0241461025c578063aba62af314610273576100f3565b80632e64c500116100c65780632e64c5001461017257806339119dce146101af57806357aecf06146101da5780637a1e55ec146101f1576100f3565b80630b961254146100f55780631e8a3ae4146101325780632236d35314610149576100f3565b366100f357005b005b34801561010157600080fd5b5061011c60048036036101179190810190613fcc565b610332565b60405161012991906147a3565b60405180910390f35b34801561013e57600080fd5b50610147610365565b005b34801561015557600080fd5b50610170600480360361016b91908101906140ac565b610bae565b005b34801561017e57600080fd5b506101996004803603610194919081019061401e565b610e3a565b6040516101a69190614788565b60405180910390f35b3480156101bb57600080fd5b506101c4610e69565b6040516101d191906149a0565b60405180910390f35b3480156101e657600080fd5b506101ef610e6f565b005b3480156101fd57600080fd5b50610206611937565b005b34801561021457600080fd5b5061021d611ed3565b005b34801561022b57600080fd5b5061024660048036036102419190810190614083565b61221e565b60405161025391906147be565b60405180910390f35b34801561026857600080fd5b5061027161237b565b005b34801561027f57600080fd5b50610288612ce9565b005b34801561029657600080fd5b5061029f6130e6565b005b3480156102ad57600080fd5b506102b6613431565b005b3480156102c457600080fd5b506102df60048036036102da9190810190613fcc565b613ef9565b6040516102ec9190614788565b60405180910390f35b34801561030157600080fd5b5061031c60048036036103179190810190613fcc565b613f19565b6040516103299190614788565b60405180910390f35b602d6020528060005260406000206000915054906101000a900473ffffffffffffffffffffffffffffffffffffffff1681565b602c60003373ffffffffffffffffffffffffffffffffffffffff1673ffffffffffffffffffffffffffffffffffffffff168152602001908152602001600020600080815260200190815260200160002060009054906101000a900460ff16610402576040517f08c379a00000000000000000000000000000000000000000000000000000000081526004016103f990614960565b60405180910390fd5b6000600260009054906101000a900473ffffffffffffffffffffffffffffffffffffffff1673ffffffffffffffffffffffffffffffffffffffff166370a08231602d60003373ffffffffffffffffffffffffffffffffffffffff1673ffffffffffffffffffffffffffffffffffffffff16815260200190815260200160002060009054906101000a900473ffffffffffffffffffffffffffffffffffffffff166040518263ffffffff1660e01b81526004016104be9190614685565b60206040518083038186803b1580156104d657600080fd5b505afa1580156104ea573d6000803e3d6000fd5b505050506040513d601f19601f8201168201806040525061050e91908101906140d5565b9050602d60003373ffffffffffffffffffffffffffffffffffffffff1673ffffffffffffffffffffffffffffffffffffffff16815260200190815260200160002060009054906101000a900473ffffffffffffffffffffffffffffffffffffffff1673ffffffffffffffffffffffffffffffffffffffff16630e4f7f366040518163ffffffff1660e01b8152600401600060405180830381600087803b1580156105b757600080fd5b505af11580156105cb573d6000803e3d6000fd5b505050506000600260009054906101000a900473ffffffffffffffffffffffffffffffffffffffff1673ffffffffffffffffffffffffffffffffffffffff166370a08231602d60003373ffffffffffffffffffffffffffffffffffffffff1673ffffffffffffffffffffffffffffffffffffffff16815260200190815260200160002060009054906101000a900473ffffffffffffffffffffffffffffffffffffffff166040518263ffffffff1660e01b815260040161068b9190614685565b60206040518083038186803b1580156106a357600080fd5b505afa1580156106b7573d6000803e3d6000fd5b505050506040513d601f19601f820116820180604052506106db91908101906140d5565b9050600260009054906101000a900473ffffffffffffffffffffffffffffffffffffffff1673ffffffffffffffffffffffffffffffffffffffff16630d25320c6040518163ffffffff1660e01b815260040160206040518083038186803b15801561074557600080fd5b505afa158015610759573d6000803e3d6000fd5b505050506040513d601f19601f8201168201806040525061077d91908101906140d5565b828203146107c0576040517f08c379a00000000000000000000000000000000000000000000000000000000081526004016107b790614860565b60405180910390fd5b602d60003373ffffffffffffffffffffffffffffffffffffffff1673ffffffffffffffffffffffffffffffffffffffff16815260200190815260200160002060009054906101000a900473ffffffffffffffffffffffffffffffffffffffff1673ffffffffffffffffffffffffffffffffffffffff16630e4f7f366040518163ffffffff1660e01b8152600401600060405180830381600087803b15801561086757600080fd5b505af115801561087b573d6000803e3d6000fd5b50505050600260009054906101000a900473ffffffffffffffffffffffffffffffffffffffff1673ffffffffffffffffffffffffffffffffffffffff16630d25320c6040518163ffffffff1660e01b815260040160206040518083038186803b1580156108e757600080fd5b505afa1580156108fb573d6000803e3d6000fd5b505050506040513d601f19601f8201168201806040525061091f91908101906140d5565b600202602d60003373ffffffffffffffffffffffffffffffffffffffff1673ffffffffffffffffffffffffffffffffffffffff16815260200190815260200160002060009054906101000a900473ffffffffffffffffffffffffffffffffffffffff1673ffffffffffffffffffffffffffffffffffffffff16630776d118306040518263ffffffff1660e01b81526004016109ba91906146a0565b602060405180830381600087803b1580156109d457600080fd5b505af11580156109e8573d6000803e3d6000fd5b505050506040513d601f19601f82011682018060405250610a0c91908101906140d5565b14610a4c576040517f08c379a0000000000000000000000000000000000000000000000000000000008152600401610a4390614880565b60405180910390fd5b602c60003373ffffffffffffffffffffffffffffffffffffffff1673ffffffffffffffffffffffffffffffffffffffff16815260200190815260200160002060006002815260200190815260200160002060009054906101000a900460ff16610baa576001602c60003373ffffffffffffffffffffffffffffffffffffffff1673ffffffffffffffffffffffffffffffffffffffff16815260200190815260200160002060006002815260200190815260200160002060006101000a81548160ff021916908315150217905550600160009054906101000a900473ffffffffffffffffffffffffffffffffffffffff1673ffffffffffffffffffffffffffffffffffffffff1663158a49883360026040518363ffffffff1660e01b8152600401610b77929190614736565b600060405180830381600087803b158015610b9157600080fd5b505af1158015610ba5573d6000803e3d6000fd5b505050505b5050565b602e60008273ffffffffffffffffffffffffffffffffffffffff1673ffffffffffffffffffffffffffffffffffffffff16815260200190815260200160002060009054906101000a900460ff1615610c0557600080fd5b80602d60003373ffffffffffffffffffffffffffffffffffffffff1673ffffffffffffffffffffffffffffffffffffffff16815260200190815260200160002060006101000a81548173ffffffffffffffffffffffffffffffffffffffff021916908373ffffffffffffffffffffffffffffffffffffffff1602179055506001602e60008373ffffffffffffffffffffffffffffffffffffffff1673ffffffffffffffffffffffffffffffffffffffff16815260200190815260200160002060006101000a81548160ff021916908315150217905550602c60003373ffffffffffffffffffffffffffffffffffffffff1673ffffffffffffffffffffffffffffffffffffffff168152602001908152602001600020600080815260200190815260200160002060009054906101000a900460ff16610e37576001602c60003373ffffffffffffffffffffffffffffffffffffffff1673ffffffffffffffffffffffffffffffffffffffff168152602001908152602001600020600080815260200190815260200160002060006101000a81548160ff021916908315150217905550600160009054906101000a900473ffffffffffffffffffffffffffffffffffffffff1673ffffffffffffffffffffffffffffffffffffffff1663158a49883360016040518363ffffffff1660e01b8152600401610e0492919061470d565b600060405180830381600087803b158015610e1e57600080fd5b505af1158015610e32573d6000803e3d6000fd5b505050505b50565b602c6020528160005260406000206020528060005260406000206000915091509054906101000a900460ff1681565b602b5481565b602c60003373ffffffffffffffffffffffffffffffffffffffff1673ffffffffffffffffffffffffffffffffffffffff168152602001908152602001600020600080815260200190815260200160002060009054906101000a900460ff16610f0c576040517f08c379a0000000000000000000000000000000000000000000000000000000008152600401610f0390614960565b60405180910390fd5b6000606490506000600260009054906101000a900473ffffffffffffffffffffffffffffffffffffffff1673ffffffffffffffffffffffffffffffffffffffff166370a08231602d60003373ffffffffffffffffffffffffffffffffffffffff1673ffffffffffffffffffffffffffffffffffffffff16815260200190815260200160002060009054906101000a900473ffffffffffffffffffffffffffffffffffffffff166040518263ffffffff1660e01b8152600401610fce9190614685565b60206040518083038186803b158015610fe657600080fd5b505afa158015610ffa573d6000803e3d6000fd5b505050506040513d601f19601f8201168201806040525061101e91908101906140d5565b90506000600260009054906101000a900473ffffffffffffffffffffffffffffffffffffffff1673ffffffffffffffffffffffffffffffffffffffff166370a08231306040518263ffffffff1660e01b815260040161107d91906146a0565b60206040518083038186803b15801561109557600080fd5b505afa1580156110a9573d6000803e3d6000fd5b505050506040513d601f19601f820116820180604052506110cd91908101906140d5565b90506000602d60003373ffffffffffffffffffffffffffffffffffffffff1673ffffffffffffffffffffffffffffffffffffffff16815260200190815260200160002060009054906101000a900473ffffffffffffffffffffffffffffffffffffffff1673ffffffffffffffffffffffffffffffffffffffff16630776d118306040518263ffffffff1660e01b815260040161116991906146a0565b602060405180830381600087803b15801561118357600080fd5b505af1158015611197573d6000803e3d6000fd5b505050506040513d601f19601f820116820180604052506111bb91908101906140d5565b905083821015611200576040517f08c379a00000000000000000000000000000000000000000000000000000000081526004016111f790614900565b60405180910390fd5b600260009054906101000a900473ffffffffffffffffffffffffffffffffffffffff1673ffffffffffffffffffffffffffffffffffffffff166339509351602d60003373ffffffffffffffffffffffffffffffffffffffff1673ffffffffffffffffffffffffffffffffffffffff16815260200190815260200160002060009054906101000a900473ffffffffffffffffffffffffffffffffffffffff16866040518363ffffffff1660e01b81526004016112bc92919061475f565b602060405180830381600087803b1580156112d657600080fd5b505af11580156112ea573d6000803e3d6000fd5b505050506040513d601f19601f8201168201806040525061130e919081019061405a565b50602d60003373ffffffffffffffffffffffffffffffffffffffff1673ffffffffffffffffffffffffffffffffffffffff16815260200190815260200160002060009054906101000a900473ffffffffffffffffffffffffffffffffffffffff1673ffffffffffffffffffffffffffffffffffffffff1663dd49756e856040518263ffffffff1660e01b81526004016113a791906149a0565b602060405180830381600087803b1580156113c157600080fd5b505af11580156113d5573d6000803e3d6000fd5b505050506040513d601f19601f820116820180604052506113f991908101906140d5565b506000600260009054906101000a900473ffffffffffffffffffffffffffffffffffffffff1673ffffffffffffffffffffffffffffffffffffffff166370a08231602d60003373ffffffffffffffffffffffffffffffffffffffff1673ffffffffffffffffffffffffffffffffffffffff16815260200190815260200160002060009054906101000a900473ffffffffffffffffffffffffffffffffffffffff166040518263ffffffff1660e01b81526004016114b69190614685565b60206040518083038186803b1580156114ce57600080fd5b505afa1580156114e2573d6000803e3d6000fd5b505050506040513d601f19601f8201168201806040525061150691908101906140d5565b90506000600260009054906101000a900473ffffffffffffffffffffffffffffffffffffffff1673ffffffffffffffffffffffffffffffffffffffff166370a08231602d60003373ffffffffffffffffffffffffffffffffffffffff1673ffffffffffffffffffffffffffffffffffffffff16815260200190815260200160002060009054906101000a900473ffffffffffffffffffffffffffffffffffffffff166040518263ffffffff1660e01b81526004016115c49190614685565b60206040518083038186803b1580156115dc57600080fd5b505afa1580156115f0573d6000803e3d6000fd5b505050506040513d601f19601f8201168201806040525061161491908101906140d5565b90506000602d60003373ffffffffffffffffffffffffffffffffffffffff1673ffffffffffffffffffffffffffffffffffffffff16815260200190815260200160002060009054906101000a900473ffffffffffffffffffffffffffffffffffffffff1673ffffffffffffffffffffffffffffffffffffffff16630776d118306040518263ffffffff1660e01b81526004016116b091906146a0565b602060405180830381600087803b1580156116ca57600080fd5b505af11580156116de573d6000803e3d6000fd5b505050506040513d601f19601f8201168201806040525061170291908101906140d5565b90508686840314611748576040517f08c379a000000000000000000000000000000000000000000000000000000000815260040161173f90614820565b60405180910390fd5b868286031461178c576040517f08c379a000000000000000000000000000000000000000000000000000000000815260040161178390614800565b60405180910390fd5b86848203146117d0576040517f08c379a00000000000000000000000000000000000000000000000000000000081526004016117c790614980565b60405180910390fd5b602c60003373ffffffffffffffffffffffffffffffffffffffff1673ffffffffffffffffffffffffffffffffffffffff16815260200190815260200160002060006006815260200190815260200160002060009054906101000a900460ff1661192e576001602c60003373ffffffffffffffffffffffffffffffffffffffff1673ffffffffffffffffffffffffffffffffffffffff16815260200190815260200160002060006006815260200190815260200160002060006101000a81548160ff021916908315150217905550600160009054906101000a900473ffffffffffffffffffffffffffffffffffffffff1673ffffffffffffffffffffffffffffffffffffffff1663158a49883360026040518363ffffffff1660e01b81526004016118fb929190614736565b600060405180830381600087803b15801561191557600080fd5b505af1158015611929573d6000803e3d6000fd5b505050505b50505050505050565b602c60003373ffffffffffffffffffffffffffffffffffffffff1673ffffffffffffffffffffffffffffffffffffffff168152602001908152602001600020600080815260200190815260200160002060009054906101000a900460ff166119d4576040517f08c379a00000000000000000000000000000000000000000000000000000000081526004016119cb90614960565b60405180910390fd5b6000602d60003373ffffffffffffffffffffffffffffffffffffffff1673ffffffffffffffffffffffffffffffffffffffff16815260200190815260200160002060009054906101000a900473ffffffffffffffffffffffffffffffffffffffff1673ffffffffffffffffffffffffffffffffffffffff166319fa44cd6040518163ffffffff1660e01b8152600401602060405180830381600087803b158015611a7d57600080fd5b505af1158015611a91573d6000803e3d6000fd5b505050506040513d601f19601f82011682018060405250611ab59190810190613ff5565b905060008190508073ffffffffffffffffffffffffffffffffffffffff1663aa271e1a602d60003373ffffffffffffffffffffffffffffffffffffffff1673ffffffffffffffffffffffffffffffffffffffff16815260200190815260200160002060009054906101000a900473ffffffffffffffffffffffffffffffffffffffff166040518263ffffffff1660e01b8152600401611b549190614685565b602060405180830381600087803b158015611b6e57600080fd5b505af1158015611b82573d6000803e3d6000fd5b505050506040513d601f19601f82011682018060405250611ba6919081019061405a565b611be5576040517f08c379a0000000000000000000000000000000000000000000000000000000008152600401611bdc906147e0565b60405180910390fd5b8073ffffffffffffffffffffffffffffffffffffffff1663aa271e1a306040518263ffffffff1660e01b8152600401611c1e91906146a0565b602060405180830381600087803b158015611c3857600080fd5b505af1158015611c4c573d6000803e3d6000fd5b505050506040513d601f19601f82011682018060405250611c70919081019061405a565b15611cb0576040517f08c379a0000000000000000000000000000000000000000000000000000000008152600401611ca790614840565b60405180910390fd5b60008090508173ffffffffffffffffffffffffffffffffffffffff166340c10f19306127106040518363ffffffff1660e01b8152600401611cf29291906146e4565b600060405180830381600087803b158015611d0c57600080fd5b505af1925050508015611d1d575060015b611d2a5760009050611d2f565b600190505b8015611d70576040517f08c379a0000000000000000000000000000000000000000000000000000000008152600401611d67906148e0565b60405180910390fd5b602c60003373ffffffffffffffffffffffffffffffffffffffff1673ffffffffffffffffffffffffffffffffffffffff16815260200190815260200160002060006007815260200190815260200160002060009054906101000a900460ff16611ece576001602c60003373ffffffffffffffffffffffffffffffffffffffff1673ffffffffffffffffffffffffffffffffffffffff16815260200190815260200160002060006007815260200190815260200160002060006101000a81548160ff021916908315150217905550600160009054906101000a900473ffffffffffffffffffffffffffffffffffffffff1673ffffffffffffffffffffffffffffffffffffffff1663158a49883360026040518363ffffffff1660e01b8152600401611e9b929190614736565b600060405180830381600087803b158015611eb557600080fd5b505af1158015611ec9573d6000803e3d6000fd5b505050505b505050565b602c60003373ffffffffffffffffffffffffffffffffffffffff1673ffffffffffffffffffffffffffffffffffffffff168152602001908152602001600020600080815260200190815260200160002060009054906101000a900460ff16611f70576040517f08c379a0000000000000000000000000000000000000000000000000000000008152600401611f6790614960565b60405180910390fd5b6000600260009054906101000a900473ffffffffffffffffffffffffffffffffffffffff1673ffffffffffffffffffffffffffffffffffffffff1663dd62ed3e33602d60003373ffffffffffffffffffffffffffffffffffffffff1673ffffffffffffffffffffffffffffffffffffffff16815260200190815260200160002060009054906101000a900473ffffffffffffffffffffffffffffffffffffffff166040518363ffffffff1660e01b815260040161202e9291906146bb565b60206040518083038186803b15801561204657600080fd5b505afa15801561205a573d6000803e3d6000fd5b505050506040513d601f19601f8201168201806040525061207e91908101906140d5565b146120be576040517f08c379a00000000000000000000000000000000000000000000000000000000081526004016120b5906148c0565b60405180910390fd5b602c60003373ffffffffffffffffffffffffffffffffffffffff1673ffffffffffffffffffffffffffffffffffffffff16815260200190815260200160002060006005815260200190815260200160002060009054906101000a900460ff1661221c576001602c60003373ffffffffffffffffffffffffffffffffffffffff1673ffffffffffffffffffffffffffffffffffffffff16815260200190815260200160002060006005815260200190815260200160002060006101000a81548160ff021916908315150217905550600160009054906101000a900473ffffffffffffffffffffffffffffffffffffffff1673ffffffffffffffffffffffffffffffffffffffff1663158a49883360016040518363ffffffff1660e01b81526004016121e992919061470d565b600060405180830381600087803b15801561220357600080fd5b505af1158015612217573d6000803e3d6000fd5b505050505b565b606060008090505b60208160ff161080156122715750600060f81b838260ff166020811061224857fe5b1a60f81b7effffffffffffffffffffffffffffffffffffffffffffffffffffffffffffff191614155b15612283578080600101915050612226565b60608160ff166040519080825280601f01601f1916602001820160405280156122bb5781602001600182028038833980820191505090505b509050600091505b60208260ff1610801561230e5750600060f81b848360ff16602081106122e557fe5b1a60f81b7effffffffffffffffffffffffffffffffffffffffffffffffffffffffffffff191614155b1561237157838260ff166020811061232257fe5b1a60f81b818360ff168151811061233557fe5b60200101907effffffffffffffffffffffffffffffffffffffffffffffffffffffffffffff1916908160001a90535081806001019250506122c3565b8092505050919050565b602c60003373ffffffffffffffffffffffffffffffffffffffff1673ffffffffffffffffffffffffffffffffffffffff168152602001908152602001600020600080815260200190815260200160002060009054906101000a900460ff16612418576040517f08c379a000000000000000000000000000000000000000000000000000000000815260040161240f90614960565b60405180910390fd5b6000600260009054906101000a900473ffffffffffffffffffffffffffffffffffffffff1673ffffffffffffffffffffffffffffffffffffffff166370a08231602d60003373ffffffffffffffffffffffffffffffffffffffff1673ffffffffffffffffffffffffffffffffffffffff16815260200190815260200160002060009054906101000a900473ffffffffffffffffffffffffffffffffffffffff166040518263ffffffff1660e01b81526004016124d49190614685565b60206040518083038186803b1580156124ec57600080fd5b505afa158015612500573d6000803e3d6000fd5b505050506040513d601f19601f8201168201806040525061252491908101906140d5565b90506000600260009054906101000a900473ffffffffffffffffffffffffffffffffffffffff1673ffffffffffffffffffffffffffffffffffffffff166370a08231306040518263ffffffff1660e01b815260040161258391906146a0565b60206040518083038186803b15801561259b57600080fd5b505afa1580156125af573d6000803e3d6000fd5b505050506040513d601f19601f820116820180604052506125d391908101906140d5565b90506000602d60003373ffffffffffffffffffffffffffffffffffffffff1673ffffffffffffffffffffffffffffffffffffffff16815260200190815260200160002060009054906101000a900473ffffffffffffffffffffffffffffffffffffffff1673ffffffffffffffffffffffffffffffffffffffff16630776d118306040518263ffffffff1660e01b815260040161266f91906146a0565b602060405180830381600087803b15801561268957600080fd5b505af115801561269d573d6000803e3d6000fd5b505050506040513d601f19601f820116820180604052506126c191908101906140d5565b9050602d60003373ffffffffffffffffffffffffffffffffffffffff1673ffffffffffffffffffffffffffffffffffffffff16815260200190815260200160002060009054906101000a900473ffffffffffffffffffffffffffffffffffffffff1673ffffffffffffffffffffffffffffffffffffffff1663315a095d826040518263ffffffff1660e01b815260040161275b91906149a0565b602060405180830381600087803b15801561277557600080fd5b505af1158015612789573d6000803e3d6000fd5b505050506040513d601f19601f820116820180604052506127ad91908101906140d5565b506000600260009054906101000a900473ffffffffffffffffffffffffffffffffffffffff1673ffffffffffffffffffffffffffffffffffffffff166370a08231602d60003373ffffffffffffffffffffffffffffffffffffffff1673ffffffffffffffffffffffffffffffffffffffff16815260200190815260200160002060009054906101000a900473ffffffffffffffffffffffffffffffffffffffff166040518263ffffffff1660e01b815260040161286a9190614685565b60206040518083038186803b15801561288257600080fd5b505afa158015612896573d6000803e3d6000fd5b505050506040513d601f19601f820116820180604052506128ba91908101906140d5565b90506000600260009054906101000a900473ffffffffffffffffffffffffffffffffffffffff1673ffffffffffffffffffffffffffffffffffffffff166370a08231602d60003373ffffffffffffffffffffffffffffffffffffffff1673ffffffffffffffffffffffffffffffffffffffff16815260200190815260200160002060009054906101000a900473ffffffffffffffffffffffffffffffffffffffff166040518263ffffffff1660e01b81526004016129789190614685565b60206040518083038186803b15801561299057600080fd5b505afa1580156129a4573d6000803e3d6000fd5b505050506040513d601f19601f820116820180604052506129c891908101906140d5565b90506000602d60003373ffffffffffffffffffffffffffffffffffffffff1673ffffffffffffffffffffffffffffffffffffffff16815260200190815260200160002060009054906101000a900473ffffffffffffffffffffffffffffffffffffffff1673ffffffffffffffffffffffffffffffffffffffff16630776d118306040518263ffffffff1660e01b8152600401612a6491906146a0565b602060405180830381600087803b158015612a7e57600080fd5b505af1158015612a92573d6000803e3d6000fd5b505050506040513d601f19601f82011682018060405250612ab691908101906140d5565b90508383870314612afc576040517f08c379a0000000000000000000000000000000000000000000000000000000008152600401612af390614820565b60405180910390fd5b8385830314612b40576040517f08c379a0000000000000000000000000000000000000000000000000000000008152600401612b3790614800565b60405180910390fd5b60008114612b83576040517f08c379a0000000000000000000000000000000000000000000000000000000008152600401612b7a906148a0565b60405180910390fd5b602c60003373ffffffffffffffffffffffffffffffffffffffff1673ffffffffffffffffffffffffffffffffffffffff16815260200190815260200160002060006003815260200190815260200160002060009054906101000a900460ff16612ce1576001602c60003373ffffffffffffffffffffffffffffffffffffffff1673ffffffffffffffffffffffffffffffffffffffff16815260200190815260200160002060006003815260200190815260200160002060006101000a81548160ff021916908315150217905550600160009054906101000a900473ffffffffffffffffffffffffffffffffffffffff1673ffffffffffffffffffffffffffffffffffffffff1663158a49883360026040518363ffffffff1660e01b8152600401612cae929190614736565b600060405180830381600087803b158015612cc857600080fd5b505af1158015612cdc573d6000803e3d6000fd5b505050505b505050505050565b6000600260009054906101000a900473ffffffffffffffffffffffffffffffffffffffff1673ffffffffffffffffffffffffffffffffffffffff166370a08231336040518263ffffffff1660e01b8152600401612d4691906146a0565b60206040518083038186803b158015612d5e57600080fd5b505afa158015612d72573d6000803e3d6000fd5b505050506040513d601f19601f82011682018060405250612d9691908101906140d5565b11612dd6576040517f08c379a0000000000000000000000000000000000000000000000000000000008152600401612dcd90614920565b60405180910390fd5b602c60003373ffffffffffffffffffffffffffffffffffffffff1673ffffffffffffffffffffffffffffffffffffffff16815260200190815260200160002060006001815260200190815260200160002060009054906101000a900460ff166130e4576001602c60003373ffffffffffffffffffffffffffffffffffffffff1673ffffffffffffffffffffffffffffffffffffffff16815260200190815260200160002060006001815260200190815260200160002060006101000a81548160ff021916908315150217905550600160009054906101000a900473ffffffffffffffffffffffffffffffffffffffff1673ffffffffffffffffffffffffffffffffffffffff1663158a49883360016040518363ffffffff1660e01b8152600401612f0192919061470d565b600060405180830381600087803b158015612f1b57600080fd5b505af1158015612f2f573d6000803e3d6000fd5b50505050600160009054906101000a900473ffffffffffffffffffffffffffffffffffffffff1673ffffffffffffffffffffffffffffffffffffffff1663158a49883360016040518363ffffffff1660e01b8152600401612f9192919061470d565b600060405180830381600087803b158015612fab57600080fd5b505af1158015612fbf573d6000803e3d6000fd5b50505050600160009054906101000a900473ffffffffffffffffffffffffffffffffffffffff1673ffffffffffffffffffffffffffffffffffffffff1663158a49883360016040518363ffffffff1660e01b815260040161302192919061470d565b600060405180830381600087803b15801561303b57600080fd5b505af115801561304f573d6000803e3d6000fd5b50505050600160009054906101000a900473ffffffffffffffffffffffffffffffffffffffff1673ffffffffffffffffffffffffffffffffffffffff1663158a49883360026040518363ffffffff1660e01b81526004016130b1929190614736565b600060405180830381600087803b1580156130cb57600080fd5b505af11580156130df573d6000803e3d6000fd5b505050505b565b602c60003373ffffffffffffffffffffffffffffffffffffffff1673ffffffffffffffffffffffffffffffffffffffff168152602001908152602001600020600080815260200190815260200160002060009054906101000a900460ff16613183576040517f08c379a000000000000000000000000000000000000000000000000000000000815260040161317a90614960565b60405180910390fd5b6000600260009054906101000a900473ffffffffffffffffffffffffffffffffffffffff1673ffffffffffffffffffffffffffffffffffffffff1663dd62ed3e33602d60003373ffffffffffffffffffffffffffffffffffffffff1673ffffffffffffffffffffffffffffffffffffffff16815260200190815260200160002060009054906101000a900473ffffffffffffffffffffffffffffffffffffffff166040518363ffffffff1660e01b81526004016132419291906146bb565b60206040518083038186803b15801561325957600080fd5b505afa15801561326d573d6000803e3d6000fd5b505050506040513d601f19601f8201168201806040525061329191908101906140d5565b116132d1576040517f08c379a00000000000000000000000000000000000000000000000000000000081526004016132c890614940565b60405180910390fd5b602c60003373ffffffffffffffffffffffffffffffffffffffff1673ffffffffffffffffffffffffffffffffffffffff16815260200190815260200160002060006004815260200190815260200160002060009054906101000a900460ff1661342f576001602c60003373ffffffffffffffffffffffffffffffffffffffff1673ffffffffffffffffffffffffffffffffffffffff16815260200190815260200160002060006004815260200190815260200160002060006101000a81548160ff021916908315150217905550600160009054906101000a900473ffffffffffffffffffffffffffffffffffffffff1673ffffffffffffffffffffffffffffffffffffffff1663158a49883360016040518363ffffffff1660e01b81526004016133fc92919061470d565b600060405180830381600087803b15801561341657600080fd5b505af115801561342a573d6000803e3d6000fd5b505050505b565b602c60003373ffffffffffffffffffffffffffffffffffffffff1673ffffffffffffffffffffffffffffffffffffffff168152602001908152602001600020600080815260200190815260200160002060009054906101000a900460ff166134ce576040517f08c379a00000000000000000000000000000000000000000000000000000000081526004016134c590614960565b60405180910390fd5b6000606490506000600260009054906101000a900473ffffffffffffffffffffffffffffffffffffffff1673ffffffffffffffffffffffffffffffffffffffff166370a08231602d60003373ffffffffffffffffffffffffffffffffffffffff1673ffffffffffffffffffffffffffffffffffffffff16815260200190815260200160002060009054906101000a900473ffffffffffffffffffffffffffffffffffffffff166040518263ffffffff1660e01b81526004016135909190614685565b60206040518083038186803b1580156135a857600080fd5b505afa1580156135bc573d6000803e3d6000fd5b505050506040513d601f19601f820116820180604052506135e091908101906140d5565b90506000600260009054906101000a900473ffffffffffffffffffffffffffffffffffffffff1673ffffffffffffffffffffffffffffffffffffffff166370a08231306040518263ffffffff1660e01b815260040161363f91906146a0565b60206040518083038186803b15801561365757600080fd5b505afa15801561366b573d6000803e3d6000fd5b505050506040513d601f19601f8201168201806040525061368f91908101906140d5565b90506000602d60003373ffffffffffffffffffffffffffffffffffffffff1673ffffffffffffffffffffffffffffffffffffffff16815260200190815260200160002060009054906101000a900473ffffffffffffffffffffffffffffffffffffffff1673ffffffffffffffffffffffffffffffffffffffff16630776d118306040518263ffffffff1660e01b815260040161372b91906146a0565b602060405180830381600087803b15801561374557600080fd5b505af1158015613759573d6000803e3d6000fd5b505050506040513d601f19601f8201168201806040525061377d91908101906140d5565b9050838210156137c2576040517f08c379a00000000000000000000000000000000000000000000000000000000081526004016137b990614900565b60405180910390fd5b600260009054906101000a900473ffffffffffffffffffffffffffffffffffffffff1673ffffffffffffffffffffffffffffffffffffffff166339509351602d60003373ffffffffffffffffffffffffffffffffffffffff1673ffffffffffffffffffffffffffffffffffffffff16815260200190815260200160002060009054906101000a900473ffffffffffffffffffffffffffffffffffffffff16866040518363ffffffff1660e01b815260040161387e92919061475f565b602060405180830381600087803b15801561389857600080fd5b505af11580156138ac573d6000803e3d6000fd5b505050506040513d601f19601f820116820180604052506138d0919081019061405a565b50602d60003373ffffffffffffffffffffffffffffffffffffffff1673ffffffffffffffffffffffffffffffffffffffff16815260200190815260200160002060009054906101000a900473ffffffffffffffffffffffffffffffffffffffff1673ffffffffffffffffffffffffffffffffffffffff1663dd49756e856040518263ffffffff1660e01b815260040161396991906149a0565b602060405180830381600087803b15801561398357600080fd5b505af1158015613997573d6000803e3d6000fd5b505050506040513d601f19601f820116820180604052506139bb91908101906140d5565b506000600260009054906101000a900473ffffffffffffffffffffffffffffffffffffffff1673ffffffffffffffffffffffffffffffffffffffff166370a08231602d60003373ffffffffffffffffffffffffffffffffffffffff1673ffffffffffffffffffffffffffffffffffffffff16815260200190815260200160002060009054906101000a900473ffffffffffffffffffffffffffffffffffffffff166040518263ffffffff1660e01b8152600401613a789190614685565b60206040518083038186803b158015613a9057600080fd5b505afa158015613aa4573d6000803e3d6000fd5b505050506040513d601f19601f82011682018060405250613ac891908101906140d5565b90506000600260009054906101000a900473ffffffffffffffffffffffffffffffffffffffff1673ffffffffffffffffffffffffffffffffffffffff166370a08231602d60003373ffffffffffffffffffffffffffffffffffffffff1673ffffffffffffffffffffffffffffffffffffffff16815260200190815260200160002060009054906101000a900473ffffffffffffffffffffffffffffffffffffffff166040518263ffffffff1660e01b8152600401613b869190614685565b60206040518083038186803b158015613b9e57600080fd5b505afa158015613bb2573d6000803e3d6000fd5b505050506040513d601f19601f82011682018060405250613bd691908101906140d5565b90506000602d60003373ffffffffffffffffffffffffffffffffffffffff1673ffffffffffffffffffffffffffffffffffffffff16815260200190815260200160002060009054906101000a900473ffffffffffffffffffffffffffffffffffffffff1673ffffffffffffffffffffffffffffffffffffffff16630776d118306040518263ffffffff1660e01b8152600401613c7291906146a0565b602060405180830381600087803b158015613c8c57600080fd5b505af1158015613ca0573d6000803e3d6000fd5b505050506040513d601f19601f82011682018060405250613cc491908101906140d5565b90508686840314613d0a576040517f08c379a0000000000000000000000000000000000000000000000000000000008152600401613d0190614820565b60405180910390fd5b8682860314613d4e576040517f08c379a0000000000000000000000000000000000000000000000000000000008152600401613d4590614800565b60405180910390fd5b8684820314613d92576040517f08c379a0000000000000000000000000000000000000000000000000000000008152600401613d8990614980565b60405180910390fd5b602c60003373ffffffffffffffffffffffffffffffffffffffff1673ffffffffffffffffffffffffffffffffffffffff16815260200190815260200160002060006008815260200190815260200160002060009054906101000a900460ff16613ef0576001602c60003373ffffffffffffffffffffffffffffffffffffffff1673ffffffffffffffffffffffffffffffffffffffff16815260200190815260200160002060006008815260200190815260200160002060006101000a81548160ff021916908315150217905550600160009054906101000a900473ffffffffffffffffffffffffffffffffffffffff1673ffffffffffffffffffffffffffffffffffffffff1663158a49883360026040518363ffffffff1660e01b8152600401613ebd929190614736565b600060405180830381600087803b158015613ed757600080fd5b505af1158015613eeb573d6000803e3d6000fd5b505050505b50505050505050565b60006020528060005260406000206000915054906101000a900460ff1681565b602e6020528060005260406000206000915054906101000a900460ff1681565b600081359050613f4881614b0f565b92915050565b600081519050613f5d81614b0f565b92915050565b600081519050613f7281614b26565b92915050565b600081359050613f8781614b3d565b92915050565b600081359050613f9c81614b54565b92915050565b600081359050613fb181614b6b565b92915050565b600081519050613fc681614b6b565b92915050565b600060208284031215613fde57600080fd5b6000613fec84828501613f39565b91505092915050565b60006020828403121561400757600080fd5b600061401584828501613f4e565b91505092915050565b6000806040838503121561403157600080fd5b600061403f85828601613f39565b925050602061405085828601613fa2565b9150509250929050565b60006020828403121561406c57600080fd5b600061407a84828501613f63565b91505092915050565b60006020828403121561409557600080fd5b60006140a384828501613f78565b91505092915050565b6000602082840312156140be57600080fd5b60006140cc84828501613f8d565b91505092915050565b6000602082840312156140e757600080fd5b60006140f584828501613fb7565b91505092915050565b61410781614a3b565b82525050565b614116816149d7565b82525050565b614125816149e9565b82525050565b61413481614a4d565b82525050565b61414381614a71565b82525050565b61415281614a83565b82525050565b61416181614a95565b82525050565b6000614172826149bb565b61417c81856149c6565b935061418c818560208601614acb565b61419581614afe565b840191505092915050565b60006141ad601e836149c6565b91507f4578657263696365536f6c7574696f6e206973206e6f74206d696e74657200006000830152602082019050919050565b60006141ed602b836149c6565b91507f4576616c7561746f722068617320616e20696e636f727265637420616d6f756e60008301527f74206f6620746f6b656e730000000000000000000000000000000000000000006020830152604082019050919050565b60006142536032836149c6565b91507f4578657263696365536f6c7574696f6e2068617320616e20696e636f7272656360008301527f7420616d6f756e74206f6620746f6b656e7300000000000000000000000000006020830152604082019050919050565b60006142b96013836149c6565b91507f4576616c7561746f72206973206d696e746572000000000000000000000000006000830152602082019050919050565b60006142f9602e836149c6565b91507f4e6f20636c61696d61626c6520746f6b656e73206d696e74656420746f20457860008301527f657263696365536f6c7574696f6e0000000000000000000000000000000000006020830152604082019050919050565b600061435f602e836149c6565b91507f42616c616e6365206f662073656e646572206e6f74206b65707420696e20457860008301527f657263696365536f6c7574696f6e0000000000000000000000000000000000006020830152604082019050919050565b60006143c56024836149c6565b91507f546f6b656e73206c6566742068656c64206279204578657263696365536f6c7560008301527f74696f6e000000000000000000000000000000000000000000000000000000006020830152604082019050919050565b600061442b6039836149c6565b91507f4578657263696365536f6c7574696f6e207374696c6c20616c6c6f776564207460008301527f6f207370656e64206d73672e73656e64657220746f6b656e73000000000000006020830152604082019050919050565b6000614491601a836149c6565b91507f4576616c7561746f72207761732061626c6520746f206d696e740000000000006000830152602082019050919050565b60006144d16025836149c6565b91507f4576616c7561746f7220646f6573206e6f7420686f6c6420656e6f756768207460008301527f6f6b656e730000000000000000000000000000000000000000000000000000006020830152604082019050919050565b60006145376014836149c6565b91507f53656e64657220686173206e6f20746f6b656e730000000000000000000000006000830152602082019050919050565b60006145776036836149c6565b91507f4578657263696365536f6c7574696f6e206e6f20616c6c6f77656420746f207360008301527f70656e64206d73672e73656e64657220746f6b656e73000000000000000000006020830152604082019050919050565b60006145dd6015836149c6565b91507f4e6f20736f6c7574696f6e207375626d697474656400000000000000000000006000830152602082019050919050565b600061461d603f836149c6565b91507f42616c616e6365206f66204576616c7561746f72206e6f74206372656469746560008301527f6420636f72726563746c7920696e204578657263696365536f6c7574696f6e006020830152604082019050919050565b61467f81614a31565b82525050565b600060208201905061469a600083018461410d565b92915050565b60006020820190506146b560008301846140fe565b92915050565b60006040820190506146d060008301856140fe565b6146dd602083018461410d565b9392505050565b60006040820190506146f960008301856140fe565b614706602083018461413a565b9392505050565b600060408201905061472260008301856140fe565b61472f6020830184614149565b9392505050565b600060408201905061474b60008301856140fe565b6147586020830184614158565b9392505050565b6000604082019050614774600083018561410d565b6147816020830184614676565b9392505050565b600060208201905061479d600083018461411c565b92915050565b60006020820190506147b8600083018461412b565b92915050565b600060208201905081810360008301526147d88184614167565b905092915050565b600060208201905081810360008301526147f9816141a0565b9050919050565b60006020820190508181036000830152614819816141e0565b9050919050565b6000602082019050818103600083015261483981614246565b9050919050565b60006020820190508181036000830152614859816142ac565b9050919050565b60006020820190508181036000830152614879816142ec565b9050919050565b6000602082019050818103600083015261489981614352565b9050919050565b600060208201905081810360008301526148b9816143b8565b9050919050565b600060208201905081810360008301526148d98161441e565b9050919050565b600060208201905081810360008301526148f981614484565b9050919050565b60006020820190508181036000830152614919816144c4565b9050919050565b600060208201905081810360008301526149398161452a565b9050919050565b600060208201905081810360008301526149598161456a565b9050919050565b60006020820190508181036000830152614979816145d0565b9050919050565b6000602082019050818103600083015261499981614610565b9050919050565b60006020820190506149b56000830184614676565b92915050565b600081519050919050565b600082825260208201905092915050565b60006149e282614a11565b9050919050565b60008115159050919050565b6000819050919050565b6000614a0a826149d7565b9050919050565b600073ffffffffffffffffffffffffffffffffffffffff82169050919050565b6000819050919050565b6000614a4682614aa7565b9050919050565b6000614a5882614a5f565b9050919050565b6000614a6a82614a11565b9050919050565b6000614a7c82614a31565b9050919050565b6000614a8e82614a31565b9050919050565b6000614aa082614a31565b9050919050565b6000614ab282614ab9565b9050919050565b6000614ac482614a11565b9050919050565b60005b83811015614ae9578082015181840152602081019050614ace565b83811115614af8576000848401525b50505050565b6000601f19601f8301169050919050565b614b18816149d7565b8114614b2357600080fd5b50565b614b2f816149e9565b8114614b3a57600080fd5b50565b614b46816149f5565b8114614b5157600080fd5b50565b614b5d816149ff565b8114614b6857600080fd5b50565b614b7481614a31565b8114614b7f57600080fd5b5056fea2646970667358221220a324d348400bd71b464143933909011d6db596d720d0eb7bfa0bfb815a7a1c7e64736f6c63430006020033",
  "source": "pragma solidity ^0.6.0;\npragma experimental ABIEncoderV2;\n\nimport \"./ERC20TD.sol\";\nimport \"./ERC20Claimable.sol\";\nimport \"./IExerciceSolution.sol\";\nimport \"./IERC20Mintable.sol\";\n\ncontract Evaluator \n{\n\n\tmapping(address => bool) public teachers;\n\tERC20TD TDERC20;\n\tERC20Claimable claimableERC20;\n\n\tuint256[20] private randomSupplies;\n\tstring[20] private randomTickers;\n \tuint public nextValueStoreRank;\n\n\n \tmapping(address => mapping(uint256 => bool)) public exerciceProgression;\n \tmapping(address => IExerciceSolution) public studentExerciceSolution;\n \tmapping(address => bool) public hasBeenPaired;\n\n \tevent newRandomTickerAndSupply(string ticker, uint256 supply);\n \tevent constructedCorrectly(address erc20Address, address claimableERC20Address);\n\tconstructor(ERC20TD _TDERC20, ERC20Claimable _claimableERC20) \n\tpublic \n\t{\n\t\tTDERC20 = _TDERC20;\n\t\tclaimableERC20 = _claimableERC20;\n\t\temit constructedCorrectly(address(TDERC20), address(claimableERC20));\n\t}\n\n\tfallback () external payable \n\t{}\n\n\treceive () external payable \n\t{}\n\n\tfunction ex1_claimedPoints()\n\tpublic\n\t{\n\t\t// Check the user has some tokens\n\t\trequire(claimableERC20.balanceOf(msg.sender) > 0, \"Sender has no tokens\");\n\n\t\t// Crediting points\n\t\tif (!exerciceProgression[msg.sender][1])\n\t\t{\n\t\t\texerciceProgression[msg.sender][1] = true;\n\t\t\tTDERC20.distributeTokens(msg.sender, 1);\n\t\t\tTDERC20.distributeTokens(msg.sender, 1);\n\t\t\tTDERC20.distributeTokens(msg.sender, 1);\n\t\t\tTDERC20.distributeTokens(msg.sender, 2);\n\t\t}\n\t}\n\n\tfunction ex2_claimedFromContract()\n\tpublic\n\t{\n\t\t// Checking a solution was submitted\n\t\trequire(exerciceProgression[msg.sender][0], \"No solution submitted\");\n\n\t\t// Checking how many tokens ExerciceSolution holds\n\t\tuint256 solutionInitBalance = claimableERC20.balanceOf(address(studentExerciceSolution[msg.sender]));\n\n\t\t// Claiming tokens through ExerciceSolution\n\t\tstudentExerciceSolution[msg.sender].claimTokensOnBehalf();\n\n\t\t// Verifying ExerciceSolution holds tokens\n\t\tuint256 solutionEndBalance = claimableERC20.balanceOf(address(studentExerciceSolution[msg.sender]));\n\t\trequire(solutionEndBalance - solutionInitBalance == claimableERC20.distributedAmount(), \"No claimable tokens minted to ExerciceSolution\");\n\n\t\t// Verifying ExerciceSolution kept track of our balance\n\t\tstudentExerciceSolution[msg.sender].claimTokensOnBehalf();\n\t\trequire(studentExerciceSolution[msg.sender].tokensInCustody(address(this)) == 2*claimableERC20.distributedAmount(), \"Balance of sender not kept in ExerciceSolution\");\n\n\n\t\t// Crediting points\n\t\tif (!exerciceProgression[msg.sender][2])\n\t\t{\n\t\t\texerciceProgression[msg.sender][2] = true;\n\t\t\tTDERC20.distributeTokens(msg.sender, 2);\n\t\t}\n\t}\n\n\tfunction ex3_withdrawFromContract()\n\tpublic\n\t{\n\t\t// Checking a solution was submitted\n\t\trequire(exerciceProgression[msg.sender][0], \"No solution submitted\");\n\n\t\t// Checking how many tokens ExerciceSolution and Evaluator hold\n\t\tuint256 solutionInitBalance = claimableERC20.balanceOf(address(studentExerciceSolution[msg.sender]));\n\t\tuint256 selfInitBalance = claimableERC20.balanceOf(address(this));\n\t\tuint256 amountToWithdraw = studentExerciceSolution[msg.sender].tokensInCustody(address(this));\n\n\t\t// Withdraw tokens through ExerciceSolution\n\t\tstudentExerciceSolution[msg.sender].withdrawTokens(amountToWithdraw);\n\n\t\t// Verifying tokens where withdrew correctly\n\t\tuint256 solutionEndBalance = claimableERC20.balanceOf(address(studentExerciceSolution[msg.sender]));\n\t\tuint256 selfEndBalance = claimableERC20.balanceOf(address(studentExerciceSolution[msg.sender]));\n\t\tuint256 amountLeft = studentExerciceSolution[msg.sender].tokensInCustody(address(this));\n\n\t\trequire(solutionInitBalance - solutionEndBalance== amountToWithdraw, \"ExerciceSolution has an incorrect amount of tokens\");\n\t\trequire(selfEndBalance - selfInitBalance == amountToWithdraw, \"Evaluator has an incorrect amount of tokens\");\n\t\trequire(amountLeft == 0, \"Tokens left held by ExerciceSolution\");\n\n\t\t// Crediting points\n\t\tif (!exerciceProgression[msg.sender][3])\n\t\t{\n\t\t\texerciceProgression[msg.sender][3] = true;\n\t\t\tTDERC20.distributeTokens(msg.sender, 2);\n\t\t}\n\t}\n\n\tfunction ex4_approvedExerciceSolution()\n\tpublic\n\t{\n\t\t// Checking a solution was submitted\n\t\trequire(exerciceProgression[msg.sender][0], \"No solution submitted\");\n\n\t\trequire(claimableERC20.allowance(msg.sender, address(studentExerciceSolution[msg.sender])) > 0,  \"ExerciceSolution no allowed to spend msg.sender tokens\");\n\n\t\t// Crediting points\n\t\tif (!exerciceProgression[msg.sender][4])\n\t\t{\n\t\t\texerciceProgression[msg.sender][4] = true;\n\t\t\tTDERC20.distributeTokens(msg.sender, 1);\n\t\t}\n\t}\n\n\tfunction ex5_revokedExerciceSolution()\n\tpublic\n\t{\n\t\t// Checking a solution was submitted\n\t\trequire(exerciceProgression[msg.sender][0], \"No solution submitted\");\n\n\t\trequire(claimableERC20.allowance(msg.sender, address(studentExerciceSolution[msg.sender])) == 0, \"ExerciceSolution still allowed to spend msg.sender tokens\");\n\n\t\t// Crediting points\n\t\tif (!exerciceProgression[msg.sender][5])\n\t\t{\n\t\t\texerciceProgression[msg.sender][5] = true;\n\t\t\tTDERC20.distributeTokens(msg.sender, 1);\n\t\t}\n\t}\n\n\tfunction ex6_depositTokens()\n\tpublic\n\t{\n\t\t// Checking a solution was submitted\n\t\trequire(exerciceProgression[msg.sender][0], \"No solution submitted\");\n\n\t\tuint256 amountToDeposit = 100;\n\n\t\t// Checking how many tokens ExerciceSolution and Evaluator hold\n\t\tuint256 solutionInitBalance = claimableERC20.balanceOf(address(studentExerciceSolution[msg.sender]));\n\t\tuint256 selfInitBalance = claimableERC20.balanceOf(address(this));\n\t\tuint256 amountDeposited = studentExerciceSolution[msg.sender].tokensInCustody(address(this));\n\t\trequire(selfInitBalance>= amountToDeposit, \"Evaluator does not hold enough tokens\");\n\n\t\t// Approve student solution to manipulate our tokens\n\t\tclaimableERC20.increaseAllowance(address(studentExerciceSolution[msg.sender]), amountToDeposit);\n\n\t\t// Deposit tokens in student contract\n\t\tstudentExerciceSolution[msg.sender].depositTokens(amountToDeposit);\n\n\t\t// Check balances are correct\n\t\tuint256 solutionEndBalance = claimableERC20.balanceOf(address(studentExerciceSolution[msg.sender]));\n\t\tuint256 selfEndBalance = claimableERC20.balanceOf(address(studentExerciceSolution[msg.sender]));\n\t\tuint256 amountLeft = studentExerciceSolution[msg.sender].tokensInCustody(address(this));\n\n\t\trequire(solutionEndBalance - solutionInitBalance == amountToDeposit, \"ExerciceSolution has an incorrect amount of tokens\");\n\t\trequire(selfInitBalance - selfEndBalance == amountToDeposit, \"Evaluator has an incorrect amount of tokens\");\n\t\trequire(amountLeft - amountDeposited == amountToDeposit, \"Balance of Evaluator not credited correctly in ExerciceSolution\");\n\n\n\t\t// Crediting points\n\t\tif (!exerciceProgression[msg.sender][6])\n\t\t{\n\t\t\texerciceProgression[msg.sender][6] = true;\n\t\t\tTDERC20.distributeTokens(msg.sender, 2);\n\t\t}\n\t}\n\n\tfunction ex7_createERC20()\n\tpublic\n\t{\n\t\t// Checking a solution was submitted\n\t\trequire(exerciceProgression[msg.sender][0], \"No solution submitted\");\n\n\t\t// Get ExerciceSolutionERC20 address\n\t\taddress exerciceSolutionERC20 = studentExerciceSolution[msg.sender].getERC20DepositAddress();\n\t\tIERC20Mintable ExerciceSolutionERC20 = IERC20Mintable(exerciceSolutionERC20);\n\n\t\t// Check that ExerciceSolution is a minter to ExerciceSolutionERC20\n\t\t// Check that we are not a minter to ExerciceSolutionERC20\n\t\trequire(ExerciceSolutionERC20.isMinter(address(studentExerciceSolution[msg.sender])), \"ExerciceSolution is not minter\");\n\t\trequire(!ExerciceSolutionERC20.isMinter(address(this)), \"Evaluator is minter\");\n\n\t\t// Check that we can not mint ExerciceSolutionERC20 tokens \n\t\tbool wasMintAccepted = false;\n\t\ttry ExerciceSolutionERC20.mint(address(this), 10000)\n\t\t{\n\t\t\twasMintAccepted = true;\n        } \n        catch \n        {\n            // This is executed in case revert() was used.\n            wasMintAccepted = false;\n        }\n\n        require(!wasMintAccepted, \"Evaluator was able to mint\");\n\n\t\t// Crediting points\n\t\tif (!exerciceProgression[msg.sender][7])\n\t\t{\n\t\t\texerciceProgression[msg.sender][7] = true;\n\t\t\tTDERC20.distributeTokens(msg.sender, 2);\n\t\t}\n\t}\n\n\tfunction ex8_depositAndMint()\n\tpublic\n\t{\n\t\t// Checking a solution was submitted\n\t\trequire(exerciceProgression[msg.sender][0], \"No solution submitted\");\n\n\t\tuint256 amountToDeposit = 100;\n\n\t\t// Checking how many tokens ExerciceSolution and Evaluator hold\n\t\tuint256 solutionInitBalance = claimableERC20.balanceOf(address(studentExerciceSolution[msg.sender]));\n\t\tuint256 selfInitBalance = claimableERC20.balanceOf(address(this));\n\t\tuint256 amountDeposited = studentExerciceSolution[msg.sender].tokensInCustody(address(this));\n\t\trequire(selfInitBalance>= amountToDeposit, \"Evaluator does not hold enough tokens\");\n\n\t\t// Approve student solution to manipulate our tokens\n\t\tclaimableERC20.increaseAllowance(address(studentExerciceSolution[msg.sender]), amountToDeposit);\n\n\t\t// Deposit tokens in student contract\n\t\tstudentExerciceSolution[msg.sender].depositTokens(amountToDeposit);\n\n\t\t// Check balances are correct\n\t\tuint256 solutionEndBalance = claimableERC20.balanceOf(address(studentExerciceSolution[msg.sender]));\n\t\tuint256 selfEndBalance = claimableERC20.balanceOf(address(studentExerciceSolution[msg.sender]));\n\t\tuint256 amountLeft = studentExerciceSolution[msg.sender].tokensInCustody(address(this));\n\n\t\trequire(solutionEndBalance - solutionInitBalance == amountToDeposit, \"ExerciceSolution has an incorrect amount of tokens\");\n\t\trequire(selfInitBalance - selfEndBalance == amountToDeposit, \"Evaluator has an incorrect amount of tokens\");\n\t\trequire(amountLeft - amountDeposited == amountToDeposit, \"Balance of Evaluator not credited correctly in ExerciceSolution\");\n\n\n\t\t// Crediting points\n\t\tif (!exerciceProgression[msg.sender][8])\n\t\t{\n\t\t\texerciceProgression[msg.sender][8] = true;\n\t\t\tTDERC20.distributeTokens(msg.sender, 2);\n\t\t}\n\t}\n\n\n\t/* Internal functions and modifiers */ \n\tfunction submitExercice(IExerciceSolution studentExercice)\n\tpublic\n\t{\n\t\t// Checking this contract was not used by another group before\n\t\trequire(!hasBeenPaired[address(studentExercice)]);\n\n\t\t// Assigning passed ERC20 as student ERC20\n\t\tstudentExerciceSolution[msg.sender] = studentExercice;\n\t\thasBeenPaired[address(studentExercice)] = true;\n\n\t\tif (!exerciceProgression[msg.sender][0])\n\t\t{\n\t\t\texerciceProgression[msg.sender][0] = true;\n\t\t\tTDERC20.distributeTokens(msg.sender, 1);\n\t\t}\n\t}\n\n\tmodifier onlyTeachers() \n\t{\n\n\t    require(TDERC20.teachers(msg.sender));\n\t    _;\n\t}\n\n\tfunction _compareStrings(string memory a, string memory b) \n\tinternal \n\tpure \n\treturns (bool) \n\t{\n    \treturn (keccak256(abi.encodePacked((a))) == keccak256(abi.encodePacked((b))));\n\t}\n\n\tfunction bytes32ToString(bytes32 _bytes32) \n\tpublic \n\tpure returns (string memory) \n\t{\n        uint8 i = 0;\n        while(i < 32 && _bytes32[i] != 0) {\n            i++;\n        }\n        bytes memory bytesArray = new bytes(i);\n        for (i = 0; i < 32 && _bytes32[i] != 0; i++) {\n            bytesArray[i] = _bytes32[i];\n        }\n        return string(bytesArray);\n    }\n\n}\n",
  "sourcePath": "/Users/henrilieutaud/Documents/Mes documents/ESILV/03 Blockchain Programmation/erc20-102/contracts/Evaluator.sol",
  "compiler": {
    "name": "solc",
    "version": "0.6.2+commit.bacdbe57.Emscripten.clang"
  },
  "schemaVersion": "3.3.4",
  "updatedAt": "2021-11-19T13:17:28.593Z",
  "devdoc": {
    "methods": {}
  },
  "userdoc": {
    "methods": {}
  }
}