{
  "contractName": "Evaluator",
  "abi": [
    {
      "inputs": [
        {
          "internalType": "contract ERC20TD",
          "name": "_TDERC20",
          "type": "address"
        },
        {
          "internalType": "contract ERC20Claimable",
          "name": "_claimableERC20",
          "type": "address"
        }
      ],
      "stateMutability": "nonpayable",
      "type": "constructor"
    },
    {
      "anonymous": false,
      "inputs": [
        {
          "indexed": false,
          "internalType": "address",
          "name": "erc20Address",
          "type": "address"
        },
        {
          "indexed": false,
          "internalType": "address",
          "name": "claimableERC20Address",
          "type": "address"
        }
      ],
      "name": "constructedCorrectly",
      "type": "event"
    },
    {
      "anonymous": false,
      "inputs": [
        {
          "indexed": false,
          "internalType": "string",
          "name": "ticker",
          "type": "string"
        },
        {
          "indexed": false,
          "internalType": "uint256",
          "name": "supply",
          "type": "uint256"
        }
      ],
      "name": "newRandomTickerAndSupply",
      "type": "event"
    },
    {
      "stateMutability": "payable",
      "type": "fallback",
      "payable": true
    },
    {
      "inputs": [
        {
          "internalType": "address",
          "name": "",
          "type": "address"
        },
        {
          "internalType": "uint256",
          "name": "",
          "type": "uint256"
        }
      ],
      "name": "exerciceProgression",
      "outputs": [
        {
          "internalType": "bool",
          "name": "",
          "type": "bool"
        }
      ],
      "stateMutability": "view",
      "type": "function",
      "constant": true
    },
    {
      "inputs": [
        {
          "internalType": "address",
          "name": "",
          "type": "address"
        }
      ],
      "name": "hasBeenPaired",
      "outputs": [
        {
          "internalType": "bool",
          "name": "",
          "type": "bool"
        }
      ],
      "stateMutability": "view",
      "type": "function",
      "constant": true
    },
    {
      "inputs": [],
      "name": "nextValueStoreRank",
      "outputs": [
        {
          "internalType": "uint256",
          "name": "",
          "type": "uint256"
        }
      ],
      "stateMutability": "view",
      "type": "function",
      "constant": true
    },
    {
      "inputs": [
        {
          "internalType": "address",
          "name": "",
          "type": "address"
        }
      ],
      "name": "studentExerciceSolution",
      "outputs": [
        {
          "internalType": "contract IExerciceSolution",
          "name": "",
          "type": "address"
        }
      ],
      "stateMutability": "view",
      "type": "function",
      "constant": true
    },
    {
      "inputs": [
        {
          "internalType": "address",
          "name": "",
          "type": "address"
        }
      ],
      "name": "teachers",
      "outputs": [
        {
          "internalType": "bool",
          "name": "",
          "type": "bool"
        }
      ],
      "stateMutability": "view",
      "type": "function",
      "constant": true
    },
    {
      "stateMutability": "payable",
      "type": "receive",
      "payable": true
    },
    {
      "inputs": [],
      "name": "ex1_claimedPoints",
      "outputs": [],
      "stateMutability": "nonpayable",
      "type": "function"
    },
    {
      "inputs": [],
      "name": "ex2_claimedFromContract",
      "outputs": [],
      "stateMutability": "nonpayable",
      "type": "function"
    },
    {
      "inputs": [],
      "name": "ex3_withdrawFromContract",
      "outputs": [],
      "stateMutability": "nonpayable",
      "type": "function"
    },
    {
      "inputs": [],
      "name": "ex4_approvedExerciceSolution",
      "outputs": [],
      "stateMutability": "nonpayable",
      "type": "function"
    },
    {
      "inputs": [],
      "name": "ex5_revokedExerciceSolution",
      "outputs": [],
      "stateMutability": "nonpayable",
      "type": "function"
    },
    {
      "inputs": [],
      "name": "ex6_depositTokens",
      "outputs": [],
      "stateMutability": "nonpayable",
      "type": "function"
    },
    {
      "inputs": [],
      "name": "ex7_createERC20",
      "outputs": [],
      "stateMutability": "nonpayable",
      "type": "function"
    },
    {
      "inputs": [
        {
          "internalType": "contract IExerciceSolution",
          "name": "studentExercice",
          "type": "address"
        }
      ],
      "name": "submitExercice",
      "outputs": [],
      "stateMutability": "nonpayable",
      "type": "function"
    },
    {
      "inputs": [
        {
          "internalType": "bytes32",
          "name": "_bytes32",
          "type": "bytes32"
        }
      ],
      "name": "bytes32ToString",
      "outputs": [
        {
          "internalType": "string",
          "name": "",
          "type": "string"
        }
      ],
      "stateMutability": "pure",
      "type": "function",
      "constant": true
    }
  ],
  "bytecode": "0x60806040523480156200001157600080fd5b506040516200435b3803806200435b83398181016040526200003791908101906200016e565b81600160006101000a81548173ffffffffffffffffffffffffffffffffffffffff021916908373ffffffffffffffffffffffffffffffffffffffff16021790555080600260006101000a81548173ffffffffffffffffffffffffffffffffffffffff021916908373ffffffffffffffffffffffffffffffffffffffff1602179055507faec105056259e6e944bb71151b9922f56b566fb88054f082eef397db7ccddf2a600160009054906101000a900473ffffffffffffffffffffffffffffffffffffffff16600260009054906101000a900473ffffffffffffffffffffffffffffffffffffffff1660405162000130929190620001c0565b60405180910390a150506200027d565b600081519050620001518162000249565b92915050565b600081519050620001688162000263565b92915050565b600080604083850312156200018257600080fd5b6000620001928582860162000157565b9250506020620001a58582860162000140565b9150509250929050565b620001ba81620001ed565b82525050565b6000604082019050620001d76000830185620001af565b620001e66020830184620001af565b9392505050565b6000620001fa8262000229565b9050919050565b60006200020e82620001ed565b9050919050565b60006200022282620001ed565b9050919050565b600073ffffffffffffffffffffffffffffffffffffffff82169050919050565b620002548162000201565b81146200026057600080fd5b50565b6200026e8162000215565b81146200027a57600080fd5b50565b6140ce806200028d6000396000f3fe6080604052600436106100e15760003560e01c8063836a10b41161007f578063aba62af311610059578063aba62af314610268578063af6c4d191461027f578063f0a47f7814610296578063f4fdbb88146102d3576100e8565b8063836a10b4146101fd5780639201de5514610214578063a38ac02414610251576100e8565b80632e64c500116100bb5780632e64c5001461016757806339119dce146101a457806357aecf06146101cf5780637a1e55ec146101e6576100e8565b80630b961254146100ea5780631e8a3ae4146101275780632236d3531461013e576100e8565b366100e857005b005b3480156100f657600080fd5b50610111600480360361010c91908101906134e2565b610310565b60405161011e9190613cb9565b60405180910390f35b34801561013357600080fd5b5061013c610343565b005b34801561014a57600080fd5b50610165600480360361016091908101906135c2565b610b8c565b005b34801561017357600080fd5b5061018e60048036036101899190810190613534565b610e18565b60405161019b9190613c9e565b60405180910390f35b3480156101b057600080fd5b506101b9610e47565b6040516101c69190613eb6565b60405180910390f35b3480156101db57600080fd5b506101e4610e4d565b005b3480156101f257600080fd5b506101fb611915565b005b34801561020957600080fd5b50610212611eb1565b005b34801561022057600080fd5b5061023b60048036036102369190810190613599565b6121fc565b6040516102489190613cd4565b60405180910390f35b34801561025d57600080fd5b50610266612359565b005b34801561027457600080fd5b5061027d612cc7565b005b34801561028b57600080fd5b506102946130c4565b005b3480156102a257600080fd5b506102bd60048036036102b891908101906134e2565b61340f565b6040516102ca9190613c9e565b60405180910390f35b3480156102df57600080fd5b506102fa60048036036102f591908101906134e2565b61342f565b6040516103079190613c9e565b60405180910390f35b602d6020528060005260406000206000915054906101000a900473ffffffffffffffffffffffffffffffffffffffff1681565b602c60003373ffffffffffffffffffffffffffffffffffffffff1673ffffffffffffffffffffffffffffffffffffffff168152602001908152602001600020600080815260200190815260200160002060009054906101000a900460ff166103e0576040517f08c379a00000000000000000000000000000000000000000000000000000000081526004016103d790613e76565b60405180910390fd5b6000600260009054906101000a900473ffffffffffffffffffffffffffffffffffffffff1673ffffffffffffffffffffffffffffffffffffffff166370a08231602d60003373ffffffffffffffffffffffffffffffffffffffff1673ffffffffffffffffffffffffffffffffffffffff16815260200190815260200160002060009054906101000a900473ffffffffffffffffffffffffffffffffffffffff166040518263ffffffff1660e01b815260040161049c9190613b9b565b60206040518083038186803b1580156104b457600080fd5b505afa1580156104c8573d6000803e3d6000fd5b505050506040513d601f19601f820116820180604052506104ec91908101906135eb565b9050602d60003373ffffffffffffffffffffffffffffffffffffffff1673ffffffffffffffffffffffffffffffffffffffff16815260200190815260200160002060009054906101000a900473ffffffffffffffffffffffffffffffffffffffff1673ffffffffffffffffffffffffffffffffffffffff16630e4f7f366040518163ffffffff1660e01b8152600401600060405180830381600087803b15801561059557600080fd5b505af11580156105a9573d6000803e3d6000fd5b505050506000600260009054906101000a900473ffffffffffffffffffffffffffffffffffffffff1673ffffffffffffffffffffffffffffffffffffffff166370a08231602d60003373ffffffffffffffffffffffffffffffffffffffff1673ffffffffffffffffffffffffffffffffffffffff16815260200190815260200160002060009054906101000a900473ffffffffffffffffffffffffffffffffffffffff166040518263ffffffff1660e01b81526004016106699190613b9b565b60206040518083038186803b15801561068157600080fd5b505afa158015610695573d6000803e3d6000fd5b505050506040513d601f19601f820116820180604052506106b991908101906135eb565b9050600260009054906101000a900473ffffffffffffffffffffffffffffffffffffffff1673ffffffffffffffffffffffffffffffffffffffff16630d25320c6040518163ffffffff1660e01b815260040160206040518083038186803b15801561072357600080fd5b505afa158015610737573d6000803e3d6000fd5b505050506040513d601f19601f8201168201806040525061075b91908101906135eb565b8282031461079e576040517f08c379a000000000000000000000000000000000000000000000000000000000815260040161079590613d76565b60405180910390fd5b602d60003373ffffffffffffffffffffffffffffffffffffffff1673ffffffffffffffffffffffffffffffffffffffff16815260200190815260200160002060009054906101000a900473ffffffffffffffffffffffffffffffffffffffff1673ffffffffffffffffffffffffffffffffffffffff16630e4f7f366040518163ffffffff1660e01b8152600401600060405180830381600087803b15801561084557600080fd5b505af1158015610859573d6000803e3d6000fd5b50505050600260009054906101000a900473ffffffffffffffffffffffffffffffffffffffff1673ffffffffffffffffffffffffffffffffffffffff16630d25320c6040518163ffffffff1660e01b815260040160206040518083038186803b1580156108c557600080fd5b505afa1580156108d9573d6000803e3d6000fd5b505050506040513d601f19601f820116820180604052506108fd91908101906135eb565b600202602d60003373ffffffffffffffffffffffffffffffffffffffff1673ffffffffffffffffffffffffffffffffffffffff16815260200190815260200160002060009054906101000a900473ffffffffffffffffffffffffffffffffffffffff1673ffffffffffffffffffffffffffffffffffffffff16630776d118306040518263ffffffff1660e01b81526004016109989190613bb6565b602060405180830381600087803b1580156109b257600080fd5b505af11580156109c6573d6000803e3d6000fd5b505050506040513d601f19601f820116820180604052506109ea91908101906135eb565b14610a2a576040517f08c379a0000000000000000000000000000000000000000000000000000000008152600401610a2190613d96565b60405180910390fd5b602c60003373ffffffffffffffffffffffffffffffffffffffff1673ffffffffffffffffffffffffffffffffffffffff16815260200190815260200160002060006002815260200190815260200160002060009054906101000a900460ff16610b88576001602c60003373ffffffffffffffffffffffffffffffffffffffff1673ffffffffffffffffffffffffffffffffffffffff16815260200190815260200160002060006002815260200190815260200160002060006101000a81548160ff021916908315150217905550600160009054906101000a900473ffffffffffffffffffffffffffffffffffffffff1673ffffffffffffffffffffffffffffffffffffffff1663158a49883360026040518363ffffffff1660e01b8152600401610b55929190613c4c565b600060405180830381600087803b158015610b6f57600080fd5b505af1158015610b83573d6000803e3d6000fd5b505050505b5050565b602e60008273ffffffffffffffffffffffffffffffffffffffff1673ffffffffffffffffffffffffffffffffffffffff16815260200190815260200160002060009054906101000a900460ff1615610be357600080fd5b80602d60003373ffffffffffffffffffffffffffffffffffffffff1673ffffffffffffffffffffffffffffffffffffffff16815260200190815260200160002060006101000a81548173ffffffffffffffffffffffffffffffffffffffff021916908373ffffffffffffffffffffffffffffffffffffffff1602179055506001602e60008373ffffffffffffffffffffffffffffffffffffffff1673ffffffffffffffffffffffffffffffffffffffff16815260200190815260200160002060006101000a81548160ff021916908315150217905550602c60003373ffffffffffffffffffffffffffffffffffffffff1673ffffffffffffffffffffffffffffffffffffffff168152602001908152602001600020600080815260200190815260200160002060009054906101000a900460ff16610e15576001602c60003373ffffffffffffffffffffffffffffffffffffffff1673ffffffffffffffffffffffffffffffffffffffff168152602001908152602001600020600080815260200190815260200160002060006101000a81548160ff021916908315150217905550600160009054906101000a900473ffffffffffffffffffffffffffffffffffffffff1673ffffffffffffffffffffffffffffffffffffffff1663158a49883360016040518363ffffffff1660e01b8152600401610de2929190613c23565b600060405180830381600087803b158015610dfc57600080fd5b505af1158015610e10573d6000803e3d6000fd5b505050505b50565b602c6020528160005260406000206020528060005260406000206000915091509054906101000a900460ff1681565b602b5481565b602c60003373ffffffffffffffffffffffffffffffffffffffff1673ffffffffffffffffffffffffffffffffffffffff168152602001908152602001600020600080815260200190815260200160002060009054906101000a900460ff16610eea576040517f08c379a0000000000000000000000000000000000000000000000000000000008152600401610ee190613e76565b60405180910390fd5b6000606490506000600260009054906101000a900473ffffffffffffffffffffffffffffffffffffffff1673ffffffffffffffffffffffffffffffffffffffff166370a08231602d60003373ffffffffffffffffffffffffffffffffffffffff1673ffffffffffffffffffffffffffffffffffffffff16815260200190815260200160002060009054906101000a900473ffffffffffffffffffffffffffffffffffffffff166040518263ffffffff1660e01b8152600401610fac9190613b9b565b60206040518083038186803b158015610fc457600080fd5b505afa158015610fd8573d6000803e3d6000fd5b505050506040513d601f19601f82011682018060405250610ffc91908101906135eb565b90506000600260009054906101000a900473ffffffffffffffffffffffffffffffffffffffff1673ffffffffffffffffffffffffffffffffffffffff166370a08231306040518263ffffffff1660e01b815260040161105b9190613bb6565b60206040518083038186803b15801561107357600080fd5b505afa158015611087573d6000803e3d6000fd5b505050506040513d601f19601f820116820180604052506110ab91908101906135eb565b90506000602d60003373ffffffffffffffffffffffffffffffffffffffff1673ffffffffffffffffffffffffffffffffffffffff16815260200190815260200160002060009054906101000a900473ffffffffffffffffffffffffffffffffffffffff1673ffffffffffffffffffffffffffffffffffffffff16630776d118306040518263ffffffff1660e01b81526004016111479190613bb6565b602060405180830381600087803b15801561116157600080fd5b505af1158015611175573d6000803e3d6000fd5b505050506040513d601f19601f8201168201806040525061119991908101906135eb565b9050838210156111de576040517f08c379a00000000000000000000000000000000000000000000000000000000081526004016111d590613e16565b60405180910390fd5b600260009054906101000a900473ffffffffffffffffffffffffffffffffffffffff1673ffffffffffffffffffffffffffffffffffffffff166339509351602d60003373ffffffffffffffffffffffffffffffffffffffff1673ffffffffffffffffffffffffffffffffffffffff16815260200190815260200160002060009054906101000a900473ffffffffffffffffffffffffffffffffffffffff16866040518363ffffffff1660e01b815260040161129a929190613c75565b602060405180830381600087803b1580156112b457600080fd5b505af11580156112c8573d6000803e3d6000fd5b505050506040513d601f19601f820116820180604052506112ec9190810190613570565b50602d60003373ffffffffffffffffffffffffffffffffffffffff1673ffffffffffffffffffffffffffffffffffffffff16815260200190815260200160002060009054906101000a900473ffffffffffffffffffffffffffffffffffffffff1673ffffffffffffffffffffffffffffffffffffffff1663dd49756e856040518263ffffffff1660e01b81526004016113859190613eb6565b602060405180830381600087803b15801561139f57600080fd5b505af11580156113b3573d6000803e3d6000fd5b505050506040513d601f19601f820116820180604052506113d791908101906135eb565b506000600260009054906101000a900473ffffffffffffffffffffffffffffffffffffffff1673ffffffffffffffffffffffffffffffffffffffff166370a08231602d60003373ffffffffffffffffffffffffffffffffffffffff1673ffffffffffffffffffffffffffffffffffffffff16815260200190815260200160002060009054906101000a900473ffffffffffffffffffffffffffffffffffffffff166040518263ffffffff1660e01b81526004016114949190613b9b565b60206040518083038186803b1580156114ac57600080fd5b505afa1580156114c0573d6000803e3d6000fd5b505050506040513d601f19601f820116820180604052506114e491908101906135eb565b90506000600260009054906101000a900473ffffffffffffffffffffffffffffffffffffffff1673ffffffffffffffffffffffffffffffffffffffff166370a08231602d60003373ffffffffffffffffffffffffffffffffffffffff1673ffffffffffffffffffffffffffffffffffffffff16815260200190815260200160002060009054906101000a900473ffffffffffffffffffffffffffffffffffffffff166040518263ffffffff1660e01b81526004016115a29190613b9b565b60206040518083038186803b1580156115ba57600080fd5b505afa1580156115ce573d6000803e3d6000fd5b505050506040513d601f19601f820116820180604052506115f291908101906135eb565b90506000602d60003373ffffffffffffffffffffffffffffffffffffffff1673ffffffffffffffffffffffffffffffffffffffff16815260200190815260200160002060009054906101000a900473ffffffffffffffffffffffffffffffffffffffff1673ffffffffffffffffffffffffffffffffffffffff16630776d118306040518263ffffffff1660e01b815260040161168e9190613bb6565b602060405180830381600087803b1580156116a857600080fd5b505af11580156116bc573d6000803e3d6000fd5b505050506040513d601f19601f820116820180604052506116e091908101906135eb565b90508686840314611726576040517f08c379a000000000000000000000000000000000000000000000000000000000815260040161171d90613d36565b60405180910390fd5b868286031461176a576040517f08c379a000000000000000000000000000000000000000000000000000000000815260040161176190613d16565b60405180910390fd5b86848203146117ae576040517f08c379a00000000000000000000000000000000000000000000000000000000081526004016117a590613e96565b60405180910390fd5b602c60003373ffffffffffffffffffffffffffffffffffffffff1673ffffffffffffffffffffffffffffffffffffffff16815260200190815260200160002060006006815260200190815260200160002060009054906101000a900460ff1661190c576001602c60003373ffffffffffffffffffffffffffffffffffffffff1673ffffffffffffffffffffffffffffffffffffffff16815260200190815260200160002060006006815260200190815260200160002060006101000a81548160ff021916908315150217905550600160009054906101000a900473ffffffffffffffffffffffffffffffffffffffff1673ffffffffffffffffffffffffffffffffffffffff1663158a49883360026040518363ffffffff1660e01b81526004016118d9929190613c4c565b600060405180830381600087803b1580156118f357600080fd5b505af1158015611907573d6000803e3d6000fd5b505050505b50505050505050565b602c60003373ffffffffffffffffffffffffffffffffffffffff1673ffffffffffffffffffffffffffffffffffffffff168152602001908152602001600020600080815260200190815260200160002060009054906101000a900460ff166119b2576040517f08c379a00000000000000000000000000000000000000000000000000000000081526004016119a990613e76565b60405180910390fd5b6000602d60003373ffffffffffffffffffffffffffffffffffffffff1673ffffffffffffffffffffffffffffffffffffffff16815260200190815260200160002060009054906101000a900473ffffffffffffffffffffffffffffffffffffffff1673ffffffffffffffffffffffffffffffffffffffff166319fa44cd6040518163ffffffff1660e01b8152600401602060405180830381600087803b158015611a5b57600080fd5b505af1158015611a6f573d6000803e3d6000fd5b505050506040513d601f19601f82011682018060405250611a93919081019061350b565b905060008190508073ffffffffffffffffffffffffffffffffffffffff1663aa271e1a602d60003373ffffffffffffffffffffffffffffffffffffffff1673ffffffffffffffffffffffffffffffffffffffff16815260200190815260200160002060009054906101000a900473ffffffffffffffffffffffffffffffffffffffff166040518263ffffffff1660e01b8152600401611b329190613b9b565b602060405180830381600087803b158015611b4c57600080fd5b505af1158015611b60573d6000803e3d6000fd5b505050506040513d601f19601f82011682018060405250611b849190810190613570565b611bc3576040517f08c379a0000000000000000000000000000000000000000000000000000000008152600401611bba90613cf6565b60405180910390fd5b8073ffffffffffffffffffffffffffffffffffffffff1663aa271e1a306040518263ffffffff1660e01b8152600401611bfc9190613bb6565b602060405180830381600087803b158015611c1657600080fd5b505af1158015611c2a573d6000803e3d6000fd5b505050506040513d601f19601f82011682018060405250611c4e9190810190613570565b15611c8e576040517f08c379a0000000000000000000000000000000000000000000000000000000008152600401611c8590613d56565b60405180910390fd5b60008090508173ffffffffffffffffffffffffffffffffffffffff166340c10f19306127106040518363ffffffff1660e01b8152600401611cd0929190613bfa565b600060405180830381600087803b158015611cea57600080fd5b505af1925050508015611cfb575060015b611d085760009050611d0d565b600190505b8015611d4e576040517f08c379a0000000000000000000000000000000000000000000000000000000008152600401611d4590613df6565b60405180910390fd5b602c60003373ffffffffffffffffffffffffffffffffffffffff1673ffffffffffffffffffffffffffffffffffffffff16815260200190815260200160002060006007815260200190815260200160002060009054906101000a900460ff16611eac576001602c60003373ffffffffffffffffffffffffffffffffffffffff1673ffffffffffffffffffffffffffffffffffffffff16815260200190815260200160002060006007815260200190815260200160002060006101000a81548160ff021916908315150217905550600160009054906101000a900473ffffffffffffffffffffffffffffffffffffffff1673ffffffffffffffffffffffffffffffffffffffff1663158a49883360026040518363ffffffff1660e01b8152600401611e79929190613c4c565b600060405180830381600087803b158015611e9357600080fd5b505af1158015611ea7573d6000803e3d6000fd5b505050505b505050565b602c60003373ffffffffffffffffffffffffffffffffffffffff1673ffffffffffffffffffffffffffffffffffffffff168152602001908152602001600020600080815260200190815260200160002060009054906101000a900460ff16611f4e576040517f08c379a0000000000000000000000000000000000000000000000000000000008152600401611f4590613e76565b60405180910390fd5b6000600260009054906101000a900473ffffffffffffffffffffffffffffffffffffffff1673ffffffffffffffffffffffffffffffffffffffff1663dd62ed3e33602d60003373ffffffffffffffffffffffffffffffffffffffff1673ffffffffffffffffffffffffffffffffffffffff16815260200190815260200160002060009054906101000a900473ffffffffffffffffffffffffffffffffffffffff166040518363ffffffff1660e01b815260040161200c929190613bd1565b60206040518083038186803b15801561202457600080fd5b505afa158015612038573d6000803e3d6000fd5b505050506040513d601f19601f8201168201806040525061205c91908101906135eb565b1461209c576040517f08c379a000000000000000000000000000000000000000000000000000000000815260040161209390613dd6565b60405180910390fd5b602c60003373ffffffffffffffffffffffffffffffffffffffff1673ffffffffffffffffffffffffffffffffffffffff16815260200190815260200160002060006005815260200190815260200160002060009054906101000a900460ff166121fa576001602c60003373ffffffffffffffffffffffffffffffffffffffff1673ffffffffffffffffffffffffffffffffffffffff16815260200190815260200160002060006005815260200190815260200160002060006101000a81548160ff021916908315150217905550600160009054906101000a900473ffffffffffffffffffffffffffffffffffffffff1673ffffffffffffffffffffffffffffffffffffffff1663158a49883360016040518363ffffffff1660e01b81526004016121c7929190613c23565b600060405180830381600087803b1580156121e157600080fd5b505af11580156121f5573d6000803e3d6000fd5b505050505b565b606060008090505b60208160ff1610801561224f5750600060f81b838260ff166020811061222657fe5b1a60f81b7effffffffffffffffffffffffffffffffffffffffffffffffffffffffffffff191614155b15612261578080600101915050612204565b60608160ff166040519080825280601f01601f1916602001820160405280156122995781602001600182028038833980820191505090505b509050600091505b60208260ff161080156122ec5750600060f81b848360ff16602081106122c357fe5b1a60f81b7effffffffffffffffffffffffffffffffffffffffffffffffffffffffffffff191614155b1561234f57838260ff166020811061230057fe5b1a60f81b818360ff168151811061231357fe5b60200101907effffffffffffffffffffffffffffffffffffffffffffffffffffffffffffff1916908160001a90535081806001019250506122a1565b8092505050919050565b602c60003373ffffffffffffffffffffffffffffffffffffffff1673ffffffffffffffffffffffffffffffffffffffff168152602001908152602001600020600080815260200190815260200160002060009054906101000a900460ff166123f6576040517f08c379a00000000000000000000000000000000000000000000000000000000081526004016123ed90613e76565b60405180910390fd5b6000600260009054906101000a900473ffffffffffffffffffffffffffffffffffffffff1673ffffffffffffffffffffffffffffffffffffffff166370a08231602d60003373ffffffffffffffffffffffffffffffffffffffff1673ffffffffffffffffffffffffffffffffffffffff16815260200190815260200160002060009054906101000a900473ffffffffffffffffffffffffffffffffffffffff166040518263ffffffff1660e01b81526004016124b29190613b9b565b60206040518083038186803b1580156124ca57600080fd5b505afa1580156124de573d6000803e3d6000fd5b505050506040513d601f19601f8201168201806040525061250291908101906135eb565b90506000600260009054906101000a900473ffffffffffffffffffffffffffffffffffffffff1673ffffffffffffffffffffffffffffffffffffffff166370a08231306040518263ffffffff1660e01b81526004016125619190613bb6565b60206040518083038186803b15801561257957600080fd5b505afa15801561258d573d6000803e3d6000fd5b505050506040513d601f19601f820116820180604052506125b191908101906135eb565b90506000602d60003373ffffffffffffffffffffffffffffffffffffffff1673ffffffffffffffffffffffffffffffffffffffff16815260200190815260200160002060009054906101000a900473ffffffffffffffffffffffffffffffffffffffff1673ffffffffffffffffffffffffffffffffffffffff16630776d118306040518263ffffffff1660e01b815260040161264d9190613bb6565b602060405180830381600087803b15801561266757600080fd5b505af115801561267b573d6000803e3d6000fd5b505050506040513d601f19601f8201168201806040525061269f91908101906135eb565b9050602d60003373ffffffffffffffffffffffffffffffffffffffff1673ffffffffffffffffffffffffffffffffffffffff16815260200190815260200160002060009054906101000a900473ffffffffffffffffffffffffffffffffffffffff1673ffffffffffffffffffffffffffffffffffffffff1663315a095d826040518263ffffffff1660e01b81526004016127399190613eb6565b602060405180830381600087803b15801561275357600080fd5b505af1158015612767573d6000803e3d6000fd5b505050506040513d601f19601f8201168201806040525061278b91908101906135eb565b506000600260009054906101000a900473ffffffffffffffffffffffffffffffffffffffff1673ffffffffffffffffffffffffffffffffffffffff166370a08231602d60003373ffffffffffffffffffffffffffffffffffffffff1673ffffffffffffffffffffffffffffffffffffffff16815260200190815260200160002060009054906101000a900473ffffffffffffffffffffffffffffffffffffffff166040518263ffffffff1660e01b81526004016128489190613b9b565b60206040518083038186803b15801561286057600080fd5b505afa158015612874573d6000803e3d6000fd5b505050506040513d601f19601f8201168201806040525061289891908101906135eb565b90506000600260009054906101000a900473ffffffffffffffffffffffffffffffffffffffff1673ffffffffffffffffffffffffffffffffffffffff166370a08231602d60003373ffffffffffffffffffffffffffffffffffffffff1673ffffffffffffffffffffffffffffffffffffffff16815260200190815260200160002060009054906101000a900473ffffffffffffffffffffffffffffffffffffffff166040518263ffffffff1660e01b81526004016129569190613b9b565b60206040518083038186803b15801561296e57600080fd5b505afa158015612982573d6000803e3d6000fd5b505050506040513d601f19601f820116820180604052506129a691908101906135eb565b90506000602d60003373ffffffffffffffffffffffffffffffffffffffff1673ffffffffffffffffffffffffffffffffffffffff16815260200190815260200160002060009054906101000a900473ffffffffffffffffffffffffffffffffffffffff1673ffffffffffffffffffffffffffffffffffffffff16630776d118306040518263ffffffff1660e01b8152600401612a429190613bb6565b602060405180830381600087803b158015612a5c57600080fd5b505af1158015612a70573d6000803e3d6000fd5b505050506040513d601f19601f82011682018060405250612a9491908101906135eb565b90508383870314612ada576040517f08c379a0000000000000000000000000000000000000000000000000000000008152600401612ad190613d36565b60405180910390fd5b8385830314612b1e576040517f08c379a0000000000000000000000000000000000000000000000000000000008152600401612b1590613d16565b60405180910390fd5b60008114612b61576040517f08c379a0000000000000000000000000000000000000000000000000000000008152600401612b5890613db6565b60405180910390fd5b602c60003373ffffffffffffffffffffffffffffffffffffffff1673ffffffffffffffffffffffffffffffffffffffff16815260200190815260200160002060006003815260200190815260200160002060009054906101000a900460ff16612cbf576001602c60003373ffffffffffffffffffffffffffffffffffffffff1673ffffffffffffffffffffffffffffffffffffffff16815260200190815260200160002060006003815260200190815260200160002060006101000a81548160ff021916908315150217905550600160009054906101000a900473ffffffffffffffffffffffffffffffffffffffff1673ffffffffffffffffffffffffffffffffffffffff1663158a49883360026040518363ffffffff1660e01b8152600401612c8c929190613c4c565b600060405180830381600087803b158015612ca657600080fd5b505af1158015612cba573d6000803e3d6000fd5b505050505b505050505050565b6000600260009054906101000a900473ffffffffffffffffffffffffffffffffffffffff1673ffffffffffffffffffffffffffffffffffffffff166370a08231336040518263ffffffff1660e01b8152600401612d249190613bb6565b60206040518083038186803b158015612d3c57600080fd5b505afa158015612d50573d6000803e3d6000fd5b505050506040513d601f19601f82011682018060405250612d7491908101906135eb565b11612db4576040517f08c379a0000000000000000000000000000000000000000000000000000000008152600401612dab90613e36565b60405180910390fd5b602c60003373ffffffffffffffffffffffffffffffffffffffff1673ffffffffffffffffffffffffffffffffffffffff16815260200190815260200160002060006001815260200190815260200160002060009054906101000a900460ff166130c2576001602c60003373ffffffffffffffffffffffffffffffffffffffff1673ffffffffffffffffffffffffffffffffffffffff16815260200190815260200160002060006001815260200190815260200160002060006101000a81548160ff021916908315150217905550600160009054906101000a900473ffffffffffffffffffffffffffffffffffffffff1673ffffffffffffffffffffffffffffffffffffffff1663158a49883360016040518363ffffffff1660e01b8152600401612edf929190613c23565b600060405180830381600087803b158015612ef957600080fd5b505af1158015612f0d573d6000803e3d6000fd5b50505050600160009054906101000a900473ffffffffffffffffffffffffffffffffffffffff1673ffffffffffffffffffffffffffffffffffffffff1663158a49883360016040518363ffffffff1660e01b8152600401612f6f929190613c23565b600060405180830381600087803b158015612f8957600080fd5b505af1158015612f9d573d6000803e3d6000fd5b50505050600160009054906101000a900473ffffffffffffffffffffffffffffffffffffffff1673ffffffffffffffffffffffffffffffffffffffff1663158a49883360016040518363ffffffff1660e01b8152600401612fff929190613c23565b600060405180830381600087803b15801561301957600080fd5b505af115801561302d573d6000803e3d6000fd5b50505050600160009054906101000a900473ffffffffffffffffffffffffffffffffffffffff1673ffffffffffffffffffffffffffffffffffffffff1663158a49883360026040518363ffffffff1660e01b815260040161308f929190613c4c565b600060405180830381600087803b1580156130a957600080fd5b505af11580156130bd573d6000803e3d6000fd5b505050505b565b602c60003373ffffffffffffffffffffffffffffffffffffffff1673ffffffffffffffffffffffffffffffffffffffff168152602001908152602001600020600080815260200190815260200160002060009054906101000a900460ff16613161576040517f08c379a000000000000000000000000000000000000000000000000000000000815260040161315890613e76565b60405180910390fd5b6000600260009054906101000a900473ffffffffffffffffffffffffffffffffffffffff1673ffffffffffffffffffffffffffffffffffffffff1663dd62ed3e33602d60003373ffffffffffffffffffffffffffffffffffffffff1673ffffffffffffffffffffffffffffffffffffffff16815260200190815260200160002060009054906101000a900473ffffffffffffffffffffffffffffffffffffffff166040518363ffffffff1660e01b815260040161321f929190613bd1565b60206040518083038186803b15801561323757600080fd5b505afa15801561324b573d6000803e3d6000fd5b505050506040513d601f19601f8201168201806040525061326f91908101906135eb565b116132af576040517f08c379a00000000000000000000000000000000000000000000000000000000081526004016132a690613e56565b60405180910390fd5b602c60003373ffffffffffffffffffffffffffffffffffffffff1673ffffffffffffffffffffffffffffffffffffffff16815260200190815260200160002060006004815260200190815260200160002060009054906101000a900460ff1661340d576001602c60003373ffffffffffffffffffffffffffffffffffffffff1673ffffffffffffffffffffffffffffffffffffffff16815260200190815260200160002060006004815260200190815260200160002060006101000a81548160ff021916908315150217905550600160009054906101000a900473ffffffffffffffffffffffffffffffffffffffff1673ffffffffffffffffffffffffffffffffffffffff1663158a49883360016040518363ffffffff1660e01b81526004016133da929190613c23565b600060405180830381600087803b1580156133f457600080fd5b505af1158015613408573d6000803e3d6000fd5b505050505b565b60006020528060005260406000206000915054906101000a900460ff1681565b602e6020528060005260406000206000915054906101000a900460ff1681565b60008135905061345e81614025565b92915050565b60008151905061347381614025565b92915050565b6000815190506134888161403c565b92915050565b60008135905061349d81614053565b92915050565b6000813590506134b28161406a565b92915050565b6000813590506134c781614081565b92915050565b6000815190506134dc81614081565b92915050565b6000602082840312156134f457600080fd5b60006135028482850161344f565b91505092915050565b60006020828403121561351d57600080fd5b600061352b84828501613464565b91505092915050565b6000806040838503121561354757600080fd5b60006135558582860161344f565b9250506020613566858286016134b8565b9150509250929050565b60006020828403121561358257600080fd5b600061359084828501613479565b91505092915050565b6000602082840312156135ab57600080fd5b60006135b98482850161348e565b91505092915050565b6000602082840312156135d457600080fd5b60006135e2848285016134a3565b91505092915050565b6000602082840312156135fd57600080fd5b600061360b848285016134cd565b91505092915050565b61361d81613f51565b82525050565b61362c81613eed565b82525050565b61363b81613eff565b82525050565b61364a81613f63565b82525050565b61365981613f87565b82525050565b61366881613f99565b82525050565b61367781613fab565b82525050565b600061368882613ed1565b6136928185613edc565b93506136a2818560208601613fe1565b6136ab81614014565b840191505092915050565b60006136c3601e83613edc565b91507f4578657263696365536f6c7574696f6e206973206e6f74206d696e74657200006000830152602082019050919050565b6000613703602b83613edc565b91507f4576616c7561746f722068617320616e20696e636f727265637420616d6f756e60008301527f74206f6620746f6b656e730000000000000000000000000000000000000000006020830152604082019050919050565b6000613769603283613edc565b91507f4578657263696365536f6c7574696f6e2068617320616e20696e636f7272656360008301527f7420616d6f756e74206f6620746f6b656e7300000000000000000000000000006020830152604082019050919050565b60006137cf601383613edc565b91507f4576616c7561746f72206973206d696e746572000000000000000000000000006000830152602082019050919050565b600061380f602e83613edc565b91507f4e6f20636c61696d61626c6520746f6b656e73206d696e74656420746f20457860008301527f657263696365536f6c7574696f6e0000000000000000000000000000000000006020830152604082019050919050565b6000613875602e83613edc565b91507f42616c616e6365206f662073656e646572206e6f74206b65707420696e20457860008301527f657263696365536f6c7574696f6e0000000000000000000000000000000000006020830152604082019050919050565b60006138db602483613edc565b91507f546f6b656e73206c6566742068656c64206279204578657263696365536f6c7560008301527f74696f6e000000000000000000000000000000000000000000000000000000006020830152604082019050919050565b6000613941603983613edc565b91507f4578657263696365536f6c7574696f6e207374696c6c20616c6c6f776564207460008301527f6f207370656e64206d73672e73656e64657220746f6b656e73000000000000006020830152604082019050919050565b60006139a7601a83613edc565b91507f4576616c7561746f72207761732061626c6520746f206d696e740000000000006000830152602082019050919050565b60006139e7602583613edc565b91507f4576616c7561746f7220646f6573206e6f7420686f6c6420656e6f756768207460008301527f6f6b656e730000000000000000000000000000000000000000000000000000006020830152604082019050919050565b6000613a4d601483613edc565b91507f53656e64657220686173206e6f20746f6b656e730000000000000000000000006000830152602082019050919050565b6000613a8d603683613edc565b91507f4578657263696365536f6c7574696f6e206e6f20616c6c6f77656420746f207360008301527f70656e64206d73672e73656e64657220746f6b656e73000000000000000000006020830152604082019050919050565b6000613af3601583613edc565b91507f4e6f20736f6c7574696f6e207375626d697474656400000000000000000000006000830152602082019050919050565b6000613b33603f83613edc565b91507f42616c616e6365206f66204576616c7561746f72206e6f74206372656469746560008301527f6420636f72726563746c7920696e204578657263696365536f6c7574696f6e006020830152604082019050919050565b613b9581613f47565b82525050565b6000602082019050613bb06000830184613623565b92915050565b6000602082019050613bcb6000830184613614565b92915050565b6000604082019050613be66000830185613614565b613bf36020830184613623565b9392505050565b6000604082019050613c0f6000830185613614565b613c1c6020830184613650565b9392505050565b6000604082019050613c386000830185613614565b613c45602083018461365f565b9392505050565b6000604082019050613c616000830185613614565b613c6e602083018461366e565b9392505050565b6000604082019050613c8a6000830185613623565b613c976020830184613b8c565b9392505050565b6000602082019050613cb36000830184613632565b92915050565b6000602082019050613cce6000830184613641565b92915050565b60006020820190508181036000830152613cee818461367d565b905092915050565b60006020820190508181036000830152613d0f816136b6565b9050919050565b60006020820190508181036000830152613d2f816136f6565b9050919050565b60006020820190508181036000830152613d4f8161375c565b9050919050565b60006020820190508181036000830152613d6f816137c2565b9050919050565b60006020820190508181036000830152613d8f81613802565b9050919050565b60006020820190508181036000830152613daf81613868565b9050919050565b60006020820190508181036000830152613dcf816138ce565b9050919050565b60006020820190508181036000830152613def81613934565b9050919050565b60006020820190508181036000830152613e0f8161399a565b9050919050565b60006020820190508181036000830152613e2f816139da565b9050919050565b60006020820190508181036000830152613e4f81613a40565b9050919050565b60006020820190508181036000830152613e6f81613a80565b9050919050565b60006020820190508181036000830152613e8f81613ae6565b9050919050565b60006020820190508181036000830152613eaf81613b26565b9050919050565b6000602082019050613ecb6000830184613b8c565b92915050565b600081519050919050565b600082825260208201905092915050565b6000613ef882613f27565b9050919050565b60008115159050919050565b6000819050919050565b6000613f2082613eed565b9050919050565b600073ffffffffffffffffffffffffffffffffffffffff82169050919050565b6000819050919050565b6000613f5c82613fbd565b9050919050565b6000613f6e82613f75565b9050919050565b6000613f8082613f27565b9050919050565b6000613f9282613f47565b9050919050565b6000613fa482613f47565b9050919050565b6000613fb682613f47565b9050919050565b6000613fc882613fcf565b9050919050565b6000613fda82613f27565b9050919050565b60005b83811015613fff578082015181840152602081019050613fe4565b8381111561400e576000848401525b50505050565b6000601f19601f8301169050919050565b61402e81613eed565b811461403957600080fd5b50565b61404581613eff565b811461405057600080fd5b50565b61405c81613f0b565b811461406757600080fd5b50565b61407381613f15565b811461407e57600080fd5b50565b61408a81613f47565b811461409557600080fd5b5056fea26469706673582212206b9668ecb2b1b108c1e0e8c19239347641deb21fd5e8783f10630306df13fdc364736f6c63430006020033",
  "source": "pragma solidity ^0.6.0;\npragma experimental ABIEncoderV2;\n\nimport \"./ERC20TD.sol\";\nimport \"./ERC20Claimable.sol\";\nimport \"./IExerciceSolution.sol\";\nimport \"./IERC20Mintable.sol\";\n\ncontract Evaluator \n{\n\n\tmapping(address => bool) public teachers;\n\tERC20TD TDERC20;\n\tERC20Claimable claimableERC20;\n\n\tuint256[20] private randomSupplies;\n\tstring[20] private randomTickers;\n \tuint public nextValueStoreRank;\n\n\n \tmapping(address => mapping(uint256 => bool)) public exerciceProgression;\n \tmapping(address => IExerciceSolution) public studentExerciceSolution;\n \tmapping(address => bool) public hasBeenPaired;\n\n \tevent newRandomTickerAndSupply(string ticker, uint256 supply);\n \tevent constructedCorrectly(address erc20Address, address claimableERC20Address);\n\tconstructor(ERC20TD _TDERC20, ERC20Claimable _claimableERC20) \n\tpublic \n\t{\n\t\tTDERC20 = _TDERC20;\n\t\tclaimableERC20 = _claimableERC20;\n\t\temit constructedCorrectly(address(TDERC20), address(claimableERC20));\n\t}\n\n\tfallback () external payable \n\t{}\n\n\treceive () external payable \n\t{}\n\n\tfunction ex1_claimedPoints()\n\tpublic\n\t{\n\t\t// Check the user has some tokens\n\t\trequire(claimableERC20.balanceOf(msg.sender) > 0, \"Sender has no tokens\");\n\n\t\t// Crediting points\n\t\tif (!exerciceProgression[msg.sender][1])\n\t\t{\n\t\t\texerciceProgression[msg.sender][1] = true;\n\t\t\tTDERC20.distributeTokens(msg.sender, 1);\n\t\t\tTDERC20.distributeTokens(msg.sender, 1);\n\t\t\tTDERC20.distributeTokens(msg.sender, 1);\n\t\t\tTDERC20.distributeTokens(msg.sender, 2);\n\t\t}\n\t}\n\n\tfunction ex2_claimedFromContract()\n\tpublic\n\t{\n\t\t// Checking a solution was submitted\n\t\trequire(exerciceProgression[msg.sender][0], \"No solution submitted\");\n\n\t\t// Checking how many tokens ExerciceSolution holds\n\t\tuint256 solutionInitBalance = claimableERC20.balanceOf(address(studentExerciceSolution[msg.sender]));\n\n\t\t// Claiming tokens through ExerciceSolution\n\t\tstudentExerciceSolution[msg.sender].claimTokensOnBehalf();\n\n\t\t// Verifying ExerciceSolution holds tokens\n\t\tuint256 solutionEndBalance = claimableERC20.balanceOf(address(studentExerciceSolution[msg.sender]));\n\t\trequire(solutionEndBalance - solutionInitBalance == claimableERC20.distributedAmount(), \"No claimable tokens minted to ExerciceSolution\");\n\n\t\t// Verifying ExerciceSolution kept track of our balance\n\t\tstudentExerciceSolution[msg.sender].claimTokensOnBehalf();\n\t\trequire(studentExerciceSolution[msg.sender].tokensInCustody(address(this)) == 2*claimableERC20.distributedAmount(), \"Balance of sender not kept in ExerciceSolution\");\n\n\n\t\t// Crediting points\n\t\tif (!exerciceProgression[msg.sender][2])\n\t\t{\n\t\t\texerciceProgression[msg.sender][2] = true;\n\t\t\tTDERC20.distributeTokens(msg.sender, 2);\n\t\t}\n\t}\n\n\tfunction ex3_withdrawFromContract()\n\tpublic\n\t{\n\t\t// Checking a solution was submitted\n\t\trequire(exerciceProgression[msg.sender][0], \"No solution submitted\");\n\n\t\t// Checking how many tokens ExerciceSolution and Evaluator hold\n\t\tuint256 solutionInitBalance = claimableERC20.balanceOf(address(studentExerciceSolution[msg.sender]));\n\t\tuint256 selfInitBalance = claimableERC20.balanceOf(address(this));\n\t\tuint256 amountToWithdraw = studentExerciceSolution[msg.sender].tokensInCustody(address(this));\n\n\t\t// Withdraw tokens through ExerciceSolution\n\t\tstudentExerciceSolution[msg.sender].withdrawTokens(amountToWithdraw);\n\n\t\t// Verifying tokens where withdrew correctly\n\t\tuint256 solutionEndBalance = claimableERC20.balanceOf(address(studentExerciceSolution[msg.sender]));\n\t\tuint256 selfEndBalance = claimableERC20.balanceOf(address(studentExerciceSolution[msg.sender]));\n\t\tuint256 amountLeft = studentExerciceSolution[msg.sender].tokensInCustody(address(this));\n\n\t\trequire(solutionInitBalance - solutionEndBalance== amountToWithdraw, \"ExerciceSolution has an incorrect amount of tokens\");\n\t\trequire(selfEndBalance - selfInitBalance == amountToWithdraw, \"Evaluator has an incorrect amount of tokens\");\n\t\trequire(amountLeft == 0, \"Tokens left held by ExerciceSolution\");\n\n\t\t// Crediting points\n\t\tif (!exerciceProgression[msg.sender][3])\n\t\t{\n\t\t\texerciceProgression[msg.sender][3] = true;\n\t\t\tTDERC20.distributeTokens(msg.sender, 2);\n\t\t}\n\t}\n\n\tfunction ex4_approvedExerciceSolution()\n\tpublic\n\t{\n\t\t// Checking a solution was submitted\n\t\trequire(exerciceProgression[msg.sender][0], \"No solution submitted\");\n\n\t\trequire(claimableERC20.allowance(msg.sender, address(studentExerciceSolution[msg.sender])) > 0,  \"ExerciceSolution no allowed to spend msg.sender tokens\");\n\n\t\t// Crediting points\n\t\tif (!exerciceProgression[msg.sender][4])\n\t\t{\n\t\t\texerciceProgression[msg.sender][4] = true;\n\t\t\tTDERC20.distributeTokens(msg.sender, 1);\n\t\t}\n\t}\n\n\tfunction ex5_revokedExerciceSolution()\n\tpublic\n\t{\n\t\t// Checking a solution was submitted\n\t\trequire(exerciceProgression[msg.sender][0], \"No solution submitted\");\n\n\t\trequire(claimableERC20.allowance(msg.sender, address(studentExerciceSolution[msg.sender])) == 0, \"ExerciceSolution still allowed to spend msg.sender tokens\");\n\n\t\t// Crediting points\n\t\tif (!exerciceProgression[msg.sender][5])\n\t\t{\n\t\t\texerciceProgression[msg.sender][5] = true;\n\t\t\tTDERC20.distributeTokens(msg.sender, 1);\n\t\t}\n\t}\n\n\tfunction ex6_depositTokens()\n\tpublic\n\t{\n\t\t// Checking a solution was submitted\n\t\trequire(exerciceProgression[msg.sender][0], \"No solution submitted\");\n\n\t\tuint256 amountToDeposit = 100;\n\n\t\t// Checking how many tokens ExerciceSolution and Evaluator hold\n\t\tuint256 solutionInitBalance = claimableERC20.balanceOf(address(studentExerciceSolution[msg.sender]));\n\t\tuint256 selfInitBalance = claimableERC20.balanceOf(address(this));\n\t\tuint256 amountDeposited = studentExerciceSolution[msg.sender].tokensInCustody(address(this));\n\t\trequire(selfInitBalance>= amountToDeposit, \"Evaluator does not hold enough tokens\");\n\n\t\t// Approve student solution to manipulate our tokens\n\t\tclaimableERC20.increaseAllowance(address(studentExerciceSolution[msg.sender]), amountToDeposit);\n\n\t\t// Deposit tokens in student contract\n\t\tstudentExerciceSolution[msg.sender].depositTokens(amountToDeposit);\n\n\t\t// Check balances are correct\n\t\tuint256 solutionEndBalance = claimableERC20.balanceOf(address(studentExerciceSolution[msg.sender]));\n\t\tuint256 selfEndBalance = claimableERC20.balanceOf(address(studentExerciceSolution[msg.sender]));\n\t\tuint256 amountLeft = studentExerciceSolution[msg.sender].tokensInCustody(address(this));\n\n\t\trequire(solutionEndBalance - solutionInitBalance == amountToDeposit, \"ExerciceSolution has an incorrect amount of tokens\");\n\t\trequire(selfInitBalance - selfEndBalance == amountToDeposit, \"Evaluator has an incorrect amount of tokens\");\n\t\trequire(amountLeft - amountDeposited == amountToDeposit, \"Balance of Evaluator not credited correctly in ExerciceSolution\");\n\n\n\t\t// Crediting points\n\t\tif (!exerciceProgression[msg.sender][6])\n\t\t{\n\t\t\texerciceProgression[msg.sender][6] = true;\n\t\t\tTDERC20.distributeTokens(msg.sender, 2);\n\t\t}\n\t}\n\n\tfunction ex7_createERC20()\n\tpublic\n\t{\n\t\t// Checking a solution was submitted\n\t\trequire(exerciceProgression[msg.sender][0], \"No solution submitted\");\n\n\t\t// Get ExerciceSolutionERC20 address\n\t\taddress exerciceSolutionERC20 = studentExerciceSolution[msg.sender].getERC20DepositAddress();\n\t\tIERC20Mintable ExerciceSolutionERC20 = IERC20Mintable(exerciceSolutionERC20);\n\n\t\t// Check that ExerciceSolution is a minter to ExerciceSolutionERC20\n\t\t// Check that we are not a minter to ExerciceSolutionERC20\n\t\trequire(ExerciceSolutionERC20.isMinter(address(studentExerciceSolution[msg.sender])), \"ExerciceSolution is not minter\");\n\t\trequire(!ExerciceSolutionERC20.isMinter(address(this)), \"Evaluator is minter\");\n\n\t\t// Check that we can not mint ExerciceSolutionERC20 tokens \n\t\tbool wasMintAccepted = false;\n\t\ttry ExerciceSolutionERC20.mint(address(this), 10000)\n\t\t{\n\t\t\twasMintAccepted = true;\n        } \n        catch \n        {\n            // This is executed in case revert() was used.\n            wasMintAccepted = false;\n        }\n\n        require(!wasMintAccepted, \"Evaluator was able to mint\");\n\n\t\t// Crediting points\n\t\tif (!exerciceProgression[msg.sender][7])\n\t\t{\n\t\t\texerciceProgression[msg.sender][7] = true;\n\t\t\tTDERC20.distributeTokens(msg.sender, 2);\n\t\t}\n\t}\n\n\t/* Internal functions and modifiers */ \n\tfunction submitExercice(IExerciceSolution studentExercice)\n\tpublic\n\t{\n\t\t// Checking this contract was not used by another group before\n\t\trequire(!hasBeenPaired[address(studentExercice)]);\n\n\t\t// Assigning passed ERC20 as student ERC20\n\t\tstudentExerciceSolution[msg.sender] = studentExercice;\n\t\thasBeenPaired[address(studentExercice)] = true;\n\n\t\tif (!exerciceProgression[msg.sender][0])\n\t\t{\n\t\t\texerciceProgression[msg.sender][0] = true;\n\t\t\tTDERC20.distributeTokens(msg.sender, 1);\n\t\t}\n\t}\n\n\tmodifier onlyTeachers() \n\t{\n\n\t    require(TDERC20.teachers(msg.sender));\n\t    _;\n\t}\n\n\tfunction _compareStrings(string memory a, string memory b) \n\tinternal \n\tpure \n\treturns (bool) \n\t{\n    \treturn (keccak256(abi.encodePacked((a))) == keccak256(abi.encodePacked((b))));\n\t}\n\n\tfunction bytes32ToString(bytes32 _bytes32) \n\tpublic \n\tpure returns (string memory) \n\t{\n        uint8 i = 0;\n        while(i < 32 && _bytes32[i] != 0) {\n            i++;\n        }\n        bytes memory bytesArray = new bytes(i);\n        for (i = 0; i < 32 && _bytes32[i] != 0; i++) {\n            bytesArray[i] = _bytes32[i];\n        }\n        return string(bytesArray);\n    }\n\n}\n",
  "sourcePath": "/Users/henrilieutaud/Documents/Mes documents/ESILV/03 Blockchain Programmation/erc20-102/contracts/Evaluator.sol",
  "compiler": {
    "name": "solc",
    "version": "0.6.2+commit.bacdbe57.Emscripten.clang"
  },
  "schemaVersion": "3.3.4",
  "updatedAt": "2021-11-19T13:09:12.889Z",
  "networkType": "ethereum",
  "devdoc": {
    "methods": {}
  },
  "userdoc": {
    "methods": {}
  }
}