{
  "contractName": "Evaluator",
  "abi": [
    {
      "inputs": [
        {
          "internalType": "contract ERC20TD",
          "name": "_TDERC20",
          "type": "address"
        },
        {
          "internalType": "contract ERC20Claimable",
          "name": "_claimableERC20",
          "type": "address"
        }
      ],
      "stateMutability": "nonpayable",
      "type": "constructor"
    },
    {
      "anonymous": false,
      "inputs": [
        {
          "indexed": false,
          "internalType": "address",
          "name": "erc20Address",
          "type": "address"
        },
        {
          "indexed": false,
          "internalType": "address",
          "name": "claimableERC20Address",
          "type": "address"
        }
      ],
      "name": "constructedCorrectly",
      "type": "event"
    },
    {
      "anonymous": false,
      "inputs": [
        {
          "indexed": false,
          "internalType": "string",
          "name": "ticker",
          "type": "string"
        },
        {
          "indexed": false,
          "internalType": "uint256",
          "name": "supply",
          "type": "uint256"
        }
      ],
      "name": "newRandomTickerAndSupply",
      "type": "event"
    },
    {
      "stateMutability": "payable",
      "type": "fallback",
      "payable": true
    },
    {
      "inputs": [
        {
          "internalType": "address",
          "name": "",
          "type": "address"
        },
        {
          "internalType": "uint256",
          "name": "",
          "type": "uint256"
        }
      ],
      "name": "exerciceProgression",
      "outputs": [
        {
          "internalType": "bool",
          "name": "",
          "type": "bool"
        }
      ],
      "stateMutability": "view",
      "type": "function",
      "constant": true
    },
    {
      "inputs": [
        {
          "internalType": "address",
          "name": "",
          "type": "address"
        }
      ],
      "name": "hasBeenPaired",
      "outputs": [
        {
          "internalType": "bool",
          "name": "",
          "type": "bool"
        }
      ],
      "stateMutability": "view",
      "type": "function",
      "constant": true
    },
    {
      "inputs": [],
      "name": "nextValueStoreRank",
      "outputs": [
        {
          "internalType": "uint256",
          "name": "",
          "type": "uint256"
        }
      ],
      "stateMutability": "view",
      "type": "function",
      "constant": true
    },
    {
      "inputs": [
        {
          "internalType": "address",
          "name": "",
          "type": "address"
        }
      ],
      "name": "studentExerciceSolution",
      "outputs": [
        {
          "internalType": "contract IExerciceSolution",
          "name": "",
          "type": "address"
        }
      ],
      "stateMutability": "view",
      "type": "function",
      "constant": true
    },
    {
      "inputs": [
        {
          "internalType": "address",
          "name": "",
          "type": "address"
        }
      ],
      "name": "teachers",
      "outputs": [
        {
          "internalType": "bool",
          "name": "",
          "type": "bool"
        }
      ],
      "stateMutability": "view",
      "type": "function",
      "constant": true
    },
    {
      "stateMutability": "payable",
      "type": "receive",
      "payable": true
    },
    {
      "inputs": [],
      "name": "ex1_claimedPoints",
      "outputs": [],
      "stateMutability": "nonpayable",
      "type": "function"
    },
    {
      "inputs": [],
      "name": "ex2_claimedFromContract",
      "outputs": [],
      "stateMutability": "nonpayable",
      "type": "function"
    },
    {
      "inputs": [],
      "name": "ex3_withdrawFromContract",
      "outputs": [],
      "stateMutability": "nonpayable",
      "type": "function"
    },
    {
      "inputs": [],
      "name": "ex4_approvedExerciceSolution",
      "outputs": [],
      "stateMutability": "nonpayable",
      "type": "function"
    },
    {
      "inputs": [],
      "name": "ex5_revokedExerciceSolution",
      "outputs": [],
      "stateMutability": "nonpayable",
      "type": "function"
    },
    {
      "inputs": [],
      "name": "ex6_depositTokens",
      "outputs": [],
      "stateMutability": "nonpayable",
      "type": "function"
    },
    {
      "inputs": [],
      "name": "ex7_createERC20",
      "outputs": [],
      "stateMutability": "nonpayable",
      "type": "function"
    },
    {
      "inputs": [],
      "name": "ex8_depositAndMint",
      "outputs": [],
      "stateMutability": "nonpayable",
      "type": "function"
    },
    {
      "inputs": [],
      "name": "ex9_withdrawAndBurn",
      "outputs": [],
      "stateMutability": "nonpayable",
      "type": "function"
    },
    {
      "inputs": [
        {
          "internalType": "contract IExerciceSolution",
          "name": "studentExercice",
          "type": "address"
        }
      ],
      "name": "submitExercice",
      "outputs": [],
      "stateMutability": "nonpayable",
      "type": "function"
    },
    {
      "inputs": [
        {
          "internalType": "bytes32",
          "name": "_bytes32",
          "type": "bytes32"
        }
      ],
      "name": "bytes32ToString",
      "outputs": [
        {
          "internalType": "string",
          "name": "",
          "type": "string"
        }
      ],
      "stateMutability": "pure",
      "type": "function",
      "constant": true
    }
  ],
  "bytecode": "0x60806040523480156200001157600080fd5b5060405162005cf738038062005cf783398181016040526200003791908101906200016e565b81600160006101000a81548173ffffffffffffffffffffffffffffffffffffffff021916908373ffffffffffffffffffffffffffffffffffffffff16021790555080600260006101000a81548173ffffffffffffffffffffffffffffffffffffffff021916908373ffffffffffffffffffffffffffffffffffffffff1602179055507faec105056259e6e944bb71151b9922f56b566fb88054f082eef397db7ccddf2a600160009054906101000a900473ffffffffffffffffffffffffffffffffffffffff16600260009054906101000a900473ffffffffffffffffffffffffffffffffffffffff1660405162000130929190620001c0565b60405180910390a150506200027d565b600081519050620001518162000249565b92915050565b600081519050620001688162000263565b92915050565b600080604083850312156200018257600080fd5b6000620001928582860162000157565b9250506020620001a58582860162000140565b9150509250929050565b620001ba81620001ed565b82525050565b6000604082019050620001d76000830185620001af565b620001e66020830184620001af565b9392505050565b6000620001fa8262000229565b9050919050565b60006200020e82620001ed565b9050919050565b60006200022282620001ed565b9050919050565b600073ffffffffffffffffffffffffffffffffffffffff82169050919050565b620002548162000201565b81146200026057600080fd5b50565b6200026e8162000215565b81146200027a57600080fd5b50565b615a6a806200028d6000396000f3fe6080604052600436106100f75760003560e01c8063836a10b41161008a578063af6c4d1911610059578063af6c4d19146102ac578063d4878938146102c3578063f0a47f78146102da578063f4fdbb8814610317576100fe565b8063836a10b41461022a5780639201de5514610241578063a38ac0241461027e578063aba62af314610295576100fe565b806339119dce116100c657806339119dce146101ba57806357aecf06146101e55780637a1e55ec146101fc5780637aa1850c14610213576100fe565b80630b961254146101005780631e8a3ae41461013d5780632236d353146101545780632e64c5001461017d576100fe565b366100fe57005b005b34801561010c57600080fd5b5061012760048036036101229190810190614c40565b610354565b60405161013491906155d5565b60405180910390f35b34801561014957600080fd5b50610152610387565b005b34801561016057600080fd5b5061017b60048036036101769190810190614d20565b610bd0565b005b34801561018957600080fd5b506101a4600480360361019f9190810190614c92565b610e5c565b6040516101b191906155ba565b60405180910390f35b3480156101c657600080fd5b506101cf610e8b565b6040516101dc9190615852565b60405180910390f35b3480156101f157600080fd5b506101fa610e91565b005b34801561020857600080fd5b50610211611959565b005b34801561021f57600080fd5b50610228611ef5565b005b34801561023657600080fd5b5061023f6129d5565b005b34801561024d57600080fd5b5061026860048036036102639190810190614cf7565b612d20565b60405161027591906155f0565b60405180910390f35b34801561028a57600080fd5b50610293612e7d565b005b3480156102a157600080fd5b506102aa6137eb565b005b3480156102b857600080fd5b506102c1613be8565b005b3480156102cf57600080fd5b506102d8613f33565b005b3480156102e657600080fd5b5061030160048036036102fc9190810190614c40565b614b6d565b60405161030e91906155ba565b60405180910390f35b34801561032357600080fd5b5061033e60048036036103399190810190614c40565b614b8d565b60405161034b91906155ba565b60405180910390f35b602d6020528060005260406000206000915054906101000a900473ffffffffffffffffffffffffffffffffffffffff1681565b602c60003373ffffffffffffffffffffffffffffffffffffffff1673ffffffffffffffffffffffffffffffffffffffff168152602001908152602001600020600080815260200190815260200160002060009054906101000a900460ff16610424576040517f08c379a000000000000000000000000000000000000000000000000000000000815260040161041b906157d2565b60405180910390fd5b6000600260009054906101000a900473ffffffffffffffffffffffffffffffffffffffff1673ffffffffffffffffffffffffffffffffffffffff166370a08231602d60003373ffffffffffffffffffffffffffffffffffffffff1673ffffffffffffffffffffffffffffffffffffffff16815260200190815260200160002060009054906101000a900473ffffffffffffffffffffffffffffffffffffffff166040518263ffffffff1660e01b81526004016104e091906154b7565b60206040518083038186803b1580156104f857600080fd5b505afa15801561050c573d6000803e3d6000fd5b505050506040513d601f19601f820116820180604052506105309190810190614d49565b9050602d60003373ffffffffffffffffffffffffffffffffffffffff1673ffffffffffffffffffffffffffffffffffffffff16815260200190815260200160002060009054906101000a900473ffffffffffffffffffffffffffffffffffffffff1673ffffffffffffffffffffffffffffffffffffffff16630e4f7f366040518163ffffffff1660e01b8152600401600060405180830381600087803b1580156105d957600080fd5b505af11580156105ed573d6000803e3d6000fd5b505050506000600260009054906101000a900473ffffffffffffffffffffffffffffffffffffffff1673ffffffffffffffffffffffffffffffffffffffff166370a08231602d60003373ffffffffffffffffffffffffffffffffffffffff1673ffffffffffffffffffffffffffffffffffffffff16815260200190815260200160002060009054906101000a900473ffffffffffffffffffffffffffffffffffffffff166040518263ffffffff1660e01b81526004016106ad91906154b7565b60206040518083038186803b1580156106c557600080fd5b505afa1580156106d9573d6000803e3d6000fd5b505050506040513d601f19601f820116820180604052506106fd9190810190614d49565b9050600260009054906101000a900473ffffffffffffffffffffffffffffffffffffffff1673ffffffffffffffffffffffffffffffffffffffff16630d25320c6040518163ffffffff1660e01b815260040160206040518083038186803b15801561076757600080fd5b505afa15801561077b573d6000803e3d6000fd5b505050506040513d601f19601f8201168201806040525061079f9190810190614d49565b828203146107e2576040517f08c379a00000000000000000000000000000000000000000000000000000000081526004016107d9906156b2565b60405180910390fd5b602d60003373ffffffffffffffffffffffffffffffffffffffff1673ffffffffffffffffffffffffffffffffffffffff16815260200190815260200160002060009054906101000a900473ffffffffffffffffffffffffffffffffffffffff1673ffffffffffffffffffffffffffffffffffffffff16630e4f7f366040518163ffffffff1660e01b8152600401600060405180830381600087803b15801561088957600080fd5b505af115801561089d573d6000803e3d6000fd5b50505050600260009054906101000a900473ffffffffffffffffffffffffffffffffffffffff1673ffffffffffffffffffffffffffffffffffffffff16630d25320c6040518163ffffffff1660e01b815260040160206040518083038186803b15801561090957600080fd5b505afa15801561091d573d6000803e3d6000fd5b505050506040513d601f19601f820116820180604052506109419190810190614d49565b600202602d60003373ffffffffffffffffffffffffffffffffffffffff1673ffffffffffffffffffffffffffffffffffffffff16815260200190815260200160002060009054906101000a900473ffffffffffffffffffffffffffffffffffffffff1673ffffffffffffffffffffffffffffffffffffffff16630776d118306040518263ffffffff1660e01b81526004016109dc91906154d2565b602060405180830381600087803b1580156109f657600080fd5b505af1158015610a0a573d6000803e3d6000fd5b505050506040513d601f19601f82011682018060405250610a2e9190810190614d49565b14610a6e576040517f08c379a0000000000000000000000000000000000000000000000000000000008152600401610a65906156d2565b60405180910390fd5b602c60003373ffffffffffffffffffffffffffffffffffffffff1673ffffffffffffffffffffffffffffffffffffffff16815260200190815260200160002060006002815260200190815260200160002060009054906101000a900460ff16610bcc576001602c60003373ffffffffffffffffffffffffffffffffffffffff1673ffffffffffffffffffffffffffffffffffffffff16815260200190815260200160002060006002815260200190815260200160002060006101000a81548160ff021916908315150217905550600160009054906101000a900473ffffffffffffffffffffffffffffffffffffffff1673ffffffffffffffffffffffffffffffffffffffff1663158a49883360026040518363ffffffff1660e01b8152600401610b99929190615568565b600060405180830381600087803b158015610bb357600080fd5b505af1158015610bc7573d6000803e3d6000fd5b505050505b5050565b602e60008273ffffffffffffffffffffffffffffffffffffffff1673ffffffffffffffffffffffffffffffffffffffff16815260200190815260200160002060009054906101000a900460ff1615610c2757600080fd5b80602d60003373ffffffffffffffffffffffffffffffffffffffff1673ffffffffffffffffffffffffffffffffffffffff16815260200190815260200160002060006101000a81548173ffffffffffffffffffffffffffffffffffffffff021916908373ffffffffffffffffffffffffffffffffffffffff1602179055506001602e60008373ffffffffffffffffffffffffffffffffffffffff1673ffffffffffffffffffffffffffffffffffffffff16815260200190815260200160002060006101000a81548160ff021916908315150217905550602c60003373ffffffffffffffffffffffffffffffffffffffff1673ffffffffffffffffffffffffffffffffffffffff168152602001908152602001600020600080815260200190815260200160002060009054906101000a900460ff16610e59576001602c60003373ffffffffffffffffffffffffffffffffffffffff1673ffffffffffffffffffffffffffffffffffffffff168152602001908152602001600020600080815260200190815260200160002060006101000a81548160ff021916908315150217905550600160009054906101000a900473ffffffffffffffffffffffffffffffffffffffff1673ffffffffffffffffffffffffffffffffffffffff1663158a49883360016040518363ffffffff1660e01b8152600401610e2692919061553f565b600060405180830381600087803b158015610e4057600080fd5b505af1158015610e54573d6000803e3d6000fd5b505050505b50565b602c6020528160005260406000206020528060005260406000206000915091509054906101000a900460ff1681565b602b5481565b602c60003373ffffffffffffffffffffffffffffffffffffffff1673ffffffffffffffffffffffffffffffffffffffff168152602001908152602001600020600080815260200190815260200160002060009054906101000a900460ff16610f2e576040517f08c379a0000000000000000000000000000000000000000000000000000000008152600401610f25906157d2565b60405180910390fd5b6000606490506000600260009054906101000a900473ffffffffffffffffffffffffffffffffffffffff1673ffffffffffffffffffffffffffffffffffffffff166370a08231602d60003373ffffffffffffffffffffffffffffffffffffffff1673ffffffffffffffffffffffffffffffffffffffff16815260200190815260200160002060009054906101000a900473ffffffffffffffffffffffffffffffffffffffff166040518263ffffffff1660e01b8152600401610ff091906154b7565b60206040518083038186803b15801561100857600080fd5b505afa15801561101c573d6000803e3d6000fd5b505050506040513d601f19601f820116820180604052506110409190810190614d49565b90506000600260009054906101000a900473ffffffffffffffffffffffffffffffffffffffff1673ffffffffffffffffffffffffffffffffffffffff166370a08231306040518263ffffffff1660e01b815260040161109f91906154d2565b60206040518083038186803b1580156110b757600080fd5b505afa1580156110cb573d6000803e3d6000fd5b505050506040513d601f19601f820116820180604052506110ef9190810190614d49565b90506000602d60003373ffffffffffffffffffffffffffffffffffffffff1673ffffffffffffffffffffffffffffffffffffffff16815260200190815260200160002060009054906101000a900473ffffffffffffffffffffffffffffffffffffffff1673ffffffffffffffffffffffffffffffffffffffff16630776d118306040518263ffffffff1660e01b815260040161118b91906154d2565b602060405180830381600087803b1580156111a557600080fd5b505af11580156111b9573d6000803e3d6000fd5b505050506040513d601f19601f820116820180604052506111dd9190810190614d49565b905083821015611222576040517f08c379a000000000000000000000000000000000000000000000000000000000815260040161121990615772565b60405180910390fd5b600260009054906101000a900473ffffffffffffffffffffffffffffffffffffffff1673ffffffffffffffffffffffffffffffffffffffff166339509351602d60003373ffffffffffffffffffffffffffffffffffffffff1673ffffffffffffffffffffffffffffffffffffffff16815260200190815260200160002060009054906101000a900473ffffffffffffffffffffffffffffffffffffffff16866040518363ffffffff1660e01b81526004016112de929190615591565b602060405180830381600087803b1580156112f857600080fd5b505af115801561130c573d6000803e3d6000fd5b505050506040513d601f19601f820116820180604052506113309190810190614cce565b50602d60003373ffffffffffffffffffffffffffffffffffffffff1673ffffffffffffffffffffffffffffffffffffffff16815260200190815260200160002060009054906101000a900473ffffffffffffffffffffffffffffffffffffffff1673ffffffffffffffffffffffffffffffffffffffff1663dd49756e856040518263ffffffff1660e01b81526004016113c99190615852565b602060405180830381600087803b1580156113e357600080fd5b505af11580156113f7573d6000803e3d6000fd5b505050506040513d601f19601f8201168201806040525061141b9190810190614d49565b506000600260009054906101000a900473ffffffffffffffffffffffffffffffffffffffff1673ffffffffffffffffffffffffffffffffffffffff166370a08231602d60003373ffffffffffffffffffffffffffffffffffffffff1673ffffffffffffffffffffffffffffffffffffffff16815260200190815260200160002060009054906101000a900473ffffffffffffffffffffffffffffffffffffffff166040518263ffffffff1660e01b81526004016114d891906154b7565b60206040518083038186803b1580156114f057600080fd5b505afa158015611504573d6000803e3d6000fd5b505050506040513d601f19601f820116820180604052506115289190810190614d49565b90506000600260009054906101000a900473ffffffffffffffffffffffffffffffffffffffff1673ffffffffffffffffffffffffffffffffffffffff166370a08231602d60003373ffffffffffffffffffffffffffffffffffffffff1673ffffffffffffffffffffffffffffffffffffffff16815260200190815260200160002060009054906101000a900473ffffffffffffffffffffffffffffffffffffffff166040518263ffffffff1660e01b81526004016115e691906154b7565b60206040518083038186803b1580156115fe57600080fd5b505afa158015611612573d6000803e3d6000fd5b505050506040513d601f19601f820116820180604052506116369190810190614d49565b90506000602d60003373ffffffffffffffffffffffffffffffffffffffff1673ffffffffffffffffffffffffffffffffffffffff16815260200190815260200160002060009054906101000a900473ffffffffffffffffffffffffffffffffffffffff1673ffffffffffffffffffffffffffffffffffffffff16630776d118306040518263ffffffff1660e01b81526004016116d291906154d2565b602060405180830381600087803b1580156116ec57600080fd5b505af1158015611700573d6000803e3d6000fd5b505050506040513d601f19601f820116820180604052506117249190810190614d49565b9050868684031461176a576040517f08c379a000000000000000000000000000000000000000000000000000000000815260040161176190615672565b60405180910390fd5b86828603146117ae576040517f08c379a00000000000000000000000000000000000000000000000000000000081526004016117a590615632565b60405180910390fd5b86848203146117f2576040517f08c379a00000000000000000000000000000000000000000000000000000000081526004016117e990615832565b60405180910390fd5b602c60003373ffffffffffffffffffffffffffffffffffffffff1673ffffffffffffffffffffffffffffffffffffffff16815260200190815260200160002060006006815260200190815260200160002060009054906101000a900460ff16611950576001602c60003373ffffffffffffffffffffffffffffffffffffffff1673ffffffffffffffffffffffffffffffffffffffff16815260200190815260200160002060006006815260200190815260200160002060006101000a81548160ff021916908315150217905550600160009054906101000a900473ffffffffffffffffffffffffffffffffffffffff1673ffffffffffffffffffffffffffffffffffffffff1663158a49883360026040518363ffffffff1660e01b815260040161191d929190615568565b600060405180830381600087803b15801561193757600080fd5b505af115801561194b573d6000803e3d6000fd5b505050505b50505050505050565b602c60003373ffffffffffffffffffffffffffffffffffffffff1673ffffffffffffffffffffffffffffffffffffffff168152602001908152602001600020600080815260200190815260200160002060009054906101000a900460ff166119f6576040517f08c379a00000000000000000000000000000000000000000000000000000000081526004016119ed906157d2565b60405180910390fd5b6000602d60003373ffffffffffffffffffffffffffffffffffffffff1673ffffffffffffffffffffffffffffffffffffffff16815260200190815260200160002060009054906101000a900473ffffffffffffffffffffffffffffffffffffffff1673ffffffffffffffffffffffffffffffffffffffff166319fa44cd6040518163ffffffff1660e01b8152600401602060405180830381600087803b158015611a9f57600080fd5b505af1158015611ab3573d6000803e3d6000fd5b505050506040513d601f19601f82011682018060405250611ad79190810190614c69565b905060008190508073ffffffffffffffffffffffffffffffffffffffff1663aa271e1a602d60003373ffffffffffffffffffffffffffffffffffffffff1673ffffffffffffffffffffffffffffffffffffffff16815260200190815260200160002060009054906101000a900473ffffffffffffffffffffffffffffffffffffffff166040518263ffffffff1660e01b8152600401611b7691906154b7565b602060405180830381600087803b158015611b9057600080fd5b505af1158015611ba4573d6000803e3d6000fd5b505050506040513d601f19601f82011682018060405250611bc89190810190614cce565b611c07576040517f08c379a0000000000000000000000000000000000000000000000000000000008152600401611bfe90615612565b60405180910390fd5b8073ffffffffffffffffffffffffffffffffffffffff1663aa271e1a306040518263ffffffff1660e01b8152600401611c4091906154d2565b602060405180830381600087803b158015611c5a57600080fd5b505af1158015611c6e573d6000803e3d6000fd5b505050506040513d601f19601f82011682018060405250611c929190810190614cce565b15611cd2576040517f08c379a0000000000000000000000000000000000000000000000000000000008152600401611cc990615692565b60405180910390fd5b60008090508173ffffffffffffffffffffffffffffffffffffffff166340c10f19306127106040518363ffffffff1660e01b8152600401611d14929190615516565b600060405180830381600087803b158015611d2e57600080fd5b505af1925050508015611d3f575060015b611d4c5760009050611d51565b600190505b8015611d92576040517f08c379a0000000000000000000000000000000000000000000000000000000008152600401611d8990615752565b60405180910390fd5b602c60003373ffffffffffffffffffffffffffffffffffffffff1673ffffffffffffffffffffffffffffffffffffffff16815260200190815260200160002060006007815260200190815260200160002060009054906101000a900460ff16611ef0576001602c60003373ffffffffffffffffffffffffffffffffffffffff1673ffffffffffffffffffffffffffffffffffffffff16815260200190815260200160002060006007815260200190815260200160002060006101000a81548160ff021916908315150217905550600160009054906101000a900473ffffffffffffffffffffffffffffffffffffffff1673ffffffffffffffffffffffffffffffffffffffff1663158a49883360026040518363ffffffff1660e01b8152600401611ebd929190615568565b600060405180830381600087803b158015611ed757600080fd5b505af1158015611eeb573d6000803e3d6000fd5b505050505b505050565b602c60003373ffffffffffffffffffffffffffffffffffffffff1673ffffffffffffffffffffffffffffffffffffffff168152602001908152602001600020600080815260200190815260200160002060009054906101000a900460ff16611f92576040517f08c379a0000000000000000000000000000000000000000000000000000000008152600401611f89906157d2565b60405180910390fd5b6000600260009054906101000a900473ffffffffffffffffffffffffffffffffffffffff1673ffffffffffffffffffffffffffffffffffffffff166370a08231602d60003373ffffffffffffffffffffffffffffffffffffffff1673ffffffffffffffffffffffffffffffffffffffff16815260200190815260200160002060009054906101000a900473ffffffffffffffffffffffffffffffffffffffff166040518263ffffffff1660e01b815260040161204e91906154b7565b60206040518083038186803b15801561206657600080fd5b505afa15801561207a573d6000803e3d6000fd5b505050506040513d601f19601f8201168201806040525061209e9190810190614d49565b90506000600260009054906101000a900473ffffffffffffffffffffffffffffffffffffffff1673ffffffffffffffffffffffffffffffffffffffff166370a08231306040518263ffffffff1660e01b81526004016120fd91906154d2565b60206040518083038186803b15801561211557600080fd5b505afa158015612129573d6000803e3d6000fd5b505050506040513d601f19601f8201168201806040525061214d9190810190614d49565b90506000602d60003373ffffffffffffffffffffffffffffffffffffffff1673ffffffffffffffffffffffffffffffffffffffff16815260200190815260200160002060009054906101000a900473ffffffffffffffffffffffffffffffffffffffff1673ffffffffffffffffffffffffffffffffffffffff166319fa44cd6040518163ffffffff1660e01b8152600401602060405180830381600087803b1580156121f857600080fd5b505af115801561220c573d6000803e3d6000fd5b505050506040513d601f19601f820116820180604052506122309190810190614c69565b9050600081905060008173ffffffffffffffffffffffffffffffffffffffff166370a08231306040518263ffffffff1660e01b815260040161227291906154d2565b60206040518083038186803b15801561228a57600080fd5b505afa15801561229e573d6000803e3d6000fd5b505050506040513d601f19601f820116820180604052506122c29190810190614d49565b905060008273ffffffffffffffffffffffffffffffffffffffff166318160ddd6040518163ffffffff1660e01b815260040160206040518083038186803b15801561230c57600080fd5b505afa158015612320573d6000803e3d6000fd5b505050506040513d601f19601f820116820180604052506123449190810190614d49565b9050602d60003373ffffffffffffffffffffffffffffffffffffffff1673ffffffffffffffffffffffffffffffffffffffff16815260200190815260200160002060009054906101000a900473ffffffffffffffffffffffffffffffffffffffff1673ffffffffffffffffffffffffffffffffffffffff1663315a095d836040518263ffffffff1660e01b81526004016123de9190615852565b602060405180830381600087803b1580156123f857600080fd5b505af115801561240c573d6000803e3d6000fd5b505050506040513d601f19601f820116820180604052506124309190810190614d49565b506000600260009054906101000a900473ffffffffffffffffffffffffffffffffffffffff1673ffffffffffffffffffffffffffffffffffffffff166370a08231602d60003373ffffffffffffffffffffffffffffffffffffffff1673ffffffffffffffffffffffffffffffffffffffff16815260200190815260200160002060009054906101000a900473ffffffffffffffffffffffffffffffffffffffff166040518263ffffffff1660e01b81526004016124ed91906154b7565b60206040518083038186803b15801561250557600080fd5b505afa158015612519573d6000803e3d6000fd5b505050506040513d601f19601f8201168201806040525061253d9190810190614d49565b90506000600260009054906101000a900473ffffffffffffffffffffffffffffffffffffffff1673ffffffffffffffffffffffffffffffffffffffff166370a08231602d60003373ffffffffffffffffffffffffffffffffffffffff1673ffffffffffffffffffffffffffffffffffffffff16815260200190815260200160002060009054906101000a900473ffffffffffffffffffffffffffffffffffffffff166040518263ffffffff1660e01b81526004016125fb91906154b7565b60206040518083038186803b15801561261357600080fd5b505afa158015612627573d6000803e3d6000fd5b505050506040513d601f19601f8201168201806040525061264b9190810190614d49565b905060008573ffffffffffffffffffffffffffffffffffffffff166370a08231306040518263ffffffff1660e01b815260040161268891906154d2565b60206040518083038186803b1580156126a057600080fd5b505afa1580156126b4573d6000803e3d6000fd5b505050506040513d601f19601f820116820180604052506126d89190810190614d49565b905060008673ffffffffffffffffffffffffffffffffffffffff166318160ddd6040518163ffffffff1660e01b815260040160206040518083038186803b15801561272257600080fd5b505afa158015612736573d6000803e3d6000fd5b505050506040513d601f19601f8201168201806040525061275a9190810190614d49565b905085848b03146127a0576040517f08c379a000000000000000000000000000000000000000000000000000000000815260040161279790615672565b60405180910390fd5b85898403146127e4576040517f08c379a00000000000000000000000000000000000000000000000000000000081526004016127db90615632565b60405180910390fd5b60008214612827576040517f08c379a000000000000000000000000000000000000000000000000000000000815260040161281e906157f2565b60405180910390fd5b858186031461286b576040517f08c379a000000000000000000000000000000000000000000000000000000000815260040161286290615652565b60405180910390fd5b602c60003373ffffffffffffffffffffffffffffffffffffffff1673ffffffffffffffffffffffffffffffffffffffff16815260200190815260200160002060006009815260200190815260200160002060009054906101000a900460ff166129c9576001602c60003373ffffffffffffffffffffffffffffffffffffffff1673ffffffffffffffffffffffffffffffffffffffff16815260200190815260200160002060006009815260200190815260200160002060006101000a81548160ff021916908315150217905550600160009054906101000a900473ffffffffffffffffffffffffffffffffffffffff1673ffffffffffffffffffffffffffffffffffffffff1663158a49883360026040518363ffffffff1660e01b8152600401612996929190615568565b600060405180830381600087803b1580156129b057600080fd5b505af11580156129c4573d6000803e3d6000fd5b505050505b50505050505050505050565b602c60003373ffffffffffffffffffffffffffffffffffffffff1673ffffffffffffffffffffffffffffffffffffffff168152602001908152602001600020600080815260200190815260200160002060009054906101000a900460ff16612a72576040517f08c379a0000000000000000000000000000000000000000000000000000000008152600401612a69906157d2565b60405180910390fd5b6000600260009054906101000a900473ffffffffffffffffffffffffffffffffffffffff1673ffffffffffffffffffffffffffffffffffffffff1663dd62ed3e33602d60003373ffffffffffffffffffffffffffffffffffffffff1673ffffffffffffffffffffffffffffffffffffffff16815260200190815260200160002060009054906101000a900473ffffffffffffffffffffffffffffffffffffffff166040518363ffffffff1660e01b8152600401612b309291906154ed565b60206040518083038186803b158015612b4857600080fd5b505afa158015612b5c573d6000803e3d6000fd5b505050506040513d601f19601f82011682018060405250612b809190810190614d49565b14612bc0576040517f08c379a0000000000000000000000000000000000000000000000000000000008152600401612bb790615712565b60405180910390fd5b602c60003373ffffffffffffffffffffffffffffffffffffffff1673ffffffffffffffffffffffffffffffffffffffff16815260200190815260200160002060006005815260200190815260200160002060009054906101000a900460ff16612d1e576001602c60003373ffffffffffffffffffffffffffffffffffffffff1673ffffffffffffffffffffffffffffffffffffffff16815260200190815260200160002060006005815260200190815260200160002060006101000a81548160ff021916908315150217905550600160009054906101000a900473ffffffffffffffffffffffffffffffffffffffff1673ffffffffffffffffffffffffffffffffffffffff1663158a49883360016040518363ffffffff1660e01b8152600401612ceb92919061553f565b600060405180830381600087803b158015612d0557600080fd5b505af1158015612d19573d6000803e3d6000fd5b505050505b565b606060008090505b60208160ff16108015612d735750600060f81b838260ff1660208110612d4a57fe5b1a60f81b7effffffffffffffffffffffffffffffffffffffffffffffffffffffffffffff191614155b15612d85578080600101915050612d28565b60608160ff166040519080825280601f01601f191660200182016040528015612dbd5781602001600182028038833980820191505090505b509050600091505b60208260ff16108015612e105750600060f81b848360ff1660208110612de757fe5b1a60f81b7effffffffffffffffffffffffffffffffffffffffffffffffffffffffffffff191614155b15612e7357838260ff1660208110612e2457fe5b1a60f81b818360ff1681518110612e3757fe5b60200101907effffffffffffffffffffffffffffffffffffffffffffffffffffffffffffff1916908160001a9053508180600101925050612dc5565b8092505050919050565b602c60003373ffffffffffffffffffffffffffffffffffffffff1673ffffffffffffffffffffffffffffffffffffffff168152602001908152602001600020600080815260200190815260200160002060009054906101000a900460ff16612f1a576040517f08c379a0000000000000000000000000000000000000000000000000000000008152600401612f11906157d2565b60405180910390fd5b6000600260009054906101000a900473ffffffffffffffffffffffffffffffffffffffff1673ffffffffffffffffffffffffffffffffffffffff166370a08231602d60003373ffffffffffffffffffffffffffffffffffffffff1673ffffffffffffffffffffffffffffffffffffffff16815260200190815260200160002060009054906101000a900473ffffffffffffffffffffffffffffffffffffffff166040518263ffffffff1660e01b8152600401612fd691906154b7565b60206040518083038186803b158015612fee57600080fd5b505afa158015613002573d6000803e3d6000fd5b505050506040513d601f19601f820116820180604052506130269190810190614d49565b90506000600260009054906101000a900473ffffffffffffffffffffffffffffffffffffffff1673ffffffffffffffffffffffffffffffffffffffff166370a08231306040518263ffffffff1660e01b815260040161308591906154d2565b60206040518083038186803b15801561309d57600080fd5b505afa1580156130b1573d6000803e3d6000fd5b505050506040513d601f19601f820116820180604052506130d59190810190614d49565b90506000602d60003373ffffffffffffffffffffffffffffffffffffffff1673ffffffffffffffffffffffffffffffffffffffff16815260200190815260200160002060009054906101000a900473ffffffffffffffffffffffffffffffffffffffff1673ffffffffffffffffffffffffffffffffffffffff16630776d118306040518263ffffffff1660e01b815260040161317191906154d2565b602060405180830381600087803b15801561318b57600080fd5b505af115801561319f573d6000803e3d6000fd5b505050506040513d601f19601f820116820180604052506131c39190810190614d49565b9050602d60003373ffffffffffffffffffffffffffffffffffffffff1673ffffffffffffffffffffffffffffffffffffffff16815260200190815260200160002060009054906101000a900473ffffffffffffffffffffffffffffffffffffffff1673ffffffffffffffffffffffffffffffffffffffff1663315a095d826040518263ffffffff1660e01b815260040161325d9190615852565b602060405180830381600087803b15801561327757600080fd5b505af115801561328b573d6000803e3d6000fd5b505050506040513d601f19601f820116820180604052506132af9190810190614d49565b506000600260009054906101000a900473ffffffffffffffffffffffffffffffffffffffff1673ffffffffffffffffffffffffffffffffffffffff166370a08231602d60003373ffffffffffffffffffffffffffffffffffffffff1673ffffffffffffffffffffffffffffffffffffffff16815260200190815260200160002060009054906101000a900473ffffffffffffffffffffffffffffffffffffffff166040518263ffffffff1660e01b815260040161336c91906154b7565b60206040518083038186803b15801561338457600080fd5b505afa158015613398573d6000803e3d6000fd5b505050506040513d601f19601f820116820180604052506133bc9190810190614d49565b90506000600260009054906101000a900473ffffffffffffffffffffffffffffffffffffffff1673ffffffffffffffffffffffffffffffffffffffff166370a08231602d60003373ffffffffffffffffffffffffffffffffffffffff1673ffffffffffffffffffffffffffffffffffffffff16815260200190815260200160002060009054906101000a900473ffffffffffffffffffffffffffffffffffffffff166040518263ffffffff1660e01b815260040161347a91906154b7565b60206040518083038186803b15801561349257600080fd5b505afa1580156134a6573d6000803e3d6000fd5b505050506040513d601f19601f820116820180604052506134ca9190810190614d49565b90506000602d60003373ffffffffffffffffffffffffffffffffffffffff1673ffffffffffffffffffffffffffffffffffffffff16815260200190815260200160002060009054906101000a900473ffffffffffffffffffffffffffffffffffffffff1673ffffffffffffffffffffffffffffffffffffffff16630776d118306040518263ffffffff1660e01b815260040161356691906154d2565b602060405180830381600087803b15801561358057600080fd5b505af1158015613594573d6000803e3d6000fd5b505050506040513d601f19601f820116820180604052506135b89190810190614d49565b905083838703146135fe576040517f08c379a00000000000000000000000000000000000000000000000000000000081526004016135f590615672565b60405180910390fd5b8385830314613642576040517f08c379a000000000000000000000000000000000000000000000000000000000815260040161363990615632565b60405180910390fd5b60008114613685576040517f08c379a000000000000000000000000000000000000000000000000000000000815260040161367c906156f2565b60405180910390fd5b602c60003373ffffffffffffffffffffffffffffffffffffffff1673ffffffffffffffffffffffffffffffffffffffff16815260200190815260200160002060006003815260200190815260200160002060009054906101000a900460ff166137e3576001602c60003373ffffffffffffffffffffffffffffffffffffffff1673ffffffffffffffffffffffffffffffffffffffff16815260200190815260200160002060006003815260200190815260200160002060006101000a81548160ff021916908315150217905550600160009054906101000a900473ffffffffffffffffffffffffffffffffffffffff1673ffffffffffffffffffffffffffffffffffffffff1663158a49883360026040518363ffffffff1660e01b81526004016137b0929190615568565b600060405180830381600087803b1580156137ca57600080fd5b505af11580156137de573d6000803e3d6000fd5b505050505b505050505050565b6000600260009054906101000a900473ffffffffffffffffffffffffffffffffffffffff1673ffffffffffffffffffffffffffffffffffffffff166370a08231336040518263ffffffff1660e01b815260040161384891906154d2565b60206040518083038186803b15801561386057600080fd5b505afa158015613874573d6000803e3d6000fd5b505050506040513d601f19601f820116820180604052506138989190810190614d49565b116138d8576040517f08c379a00000000000000000000000000000000000000000000000000000000081526004016138cf90615792565b60405180910390fd5b602c60003373ffffffffffffffffffffffffffffffffffffffff1673ffffffffffffffffffffffffffffffffffffffff16815260200190815260200160002060006001815260200190815260200160002060009054906101000a900460ff16613be6576001602c60003373ffffffffffffffffffffffffffffffffffffffff1673ffffffffffffffffffffffffffffffffffffffff16815260200190815260200160002060006001815260200190815260200160002060006101000a81548160ff021916908315150217905550600160009054906101000a900473ffffffffffffffffffffffffffffffffffffffff1673ffffffffffffffffffffffffffffffffffffffff1663158a49883360016040518363ffffffff1660e01b8152600401613a0392919061553f565b600060405180830381600087803b158015613a1d57600080fd5b505af1158015613a31573d6000803e3d6000fd5b50505050600160009054906101000a900473ffffffffffffffffffffffffffffffffffffffff1673ffffffffffffffffffffffffffffffffffffffff1663158a49883360016040518363ffffffff1660e01b8152600401613a9392919061553f565b600060405180830381600087803b158015613aad57600080fd5b505af1158015613ac1573d6000803e3d6000fd5b50505050600160009054906101000a900473ffffffffffffffffffffffffffffffffffffffff1673ffffffffffffffffffffffffffffffffffffffff1663158a49883360016040518363ffffffff1660e01b8152600401613b2392919061553f565b600060405180830381600087803b158015613b3d57600080fd5b505af1158015613b51573d6000803e3d6000fd5b50505050600160009054906101000a900473ffffffffffffffffffffffffffffffffffffffff1673ffffffffffffffffffffffffffffffffffffffff1663158a49883360026040518363ffffffff1660e01b8152600401613bb3929190615568565b600060405180830381600087803b158015613bcd57600080fd5b505af1158015613be1573d6000803e3d6000fd5b505050505b565b602c60003373ffffffffffffffffffffffffffffffffffffffff1673ffffffffffffffffffffffffffffffffffffffff168152602001908152602001600020600080815260200190815260200160002060009054906101000a900460ff16613c85576040517f08c379a0000000000000000000000000000000000000000000000000000000008152600401613c7c906157d2565b60405180910390fd5b6000600260009054906101000a900473ffffffffffffffffffffffffffffffffffffffff1673ffffffffffffffffffffffffffffffffffffffff1663dd62ed3e33602d60003373ffffffffffffffffffffffffffffffffffffffff1673ffffffffffffffffffffffffffffffffffffffff16815260200190815260200160002060009054906101000a900473ffffffffffffffffffffffffffffffffffffffff166040518363ffffffff1660e01b8152600401613d439291906154ed565b60206040518083038186803b158015613d5b57600080fd5b505afa158015613d6f573d6000803e3d6000fd5b505050506040513d601f19601f82011682018060405250613d939190810190614d49565b11613dd3576040517f08c379a0000000000000000000000000000000000000000000000000000000008152600401613dca906157b2565b60405180910390fd5b602c60003373ffffffffffffffffffffffffffffffffffffffff1673ffffffffffffffffffffffffffffffffffffffff16815260200190815260200160002060006004815260200190815260200160002060009054906101000a900460ff16613f31576001602c60003373ffffffffffffffffffffffffffffffffffffffff1673ffffffffffffffffffffffffffffffffffffffff16815260200190815260200160002060006004815260200190815260200160002060006101000a81548160ff021916908315150217905550600160009054906101000a900473ffffffffffffffffffffffffffffffffffffffff1673ffffffffffffffffffffffffffffffffffffffff1663158a49883360016040518363ffffffff1660e01b8152600401613efe92919061553f565b600060405180830381600087803b158015613f1857600080fd5b505af1158015613f2c573d6000803e3d6000fd5b505050505b565b602c60003373ffffffffffffffffffffffffffffffffffffffff1673ffffffffffffffffffffffffffffffffffffffff168152602001908152602001600020600080815260200190815260200160002060009054906101000a900460ff16613fd0576040517f08c379a0000000000000000000000000000000000000000000000000000000008152600401613fc7906157d2565b60405180910390fd5b6000606490506000600260009054906101000a900473ffffffffffffffffffffffffffffffffffffffff1673ffffffffffffffffffffffffffffffffffffffff166370a08231602d60003373ffffffffffffffffffffffffffffffffffffffff1673ffffffffffffffffffffffffffffffffffffffff16815260200190815260200160002060009054906101000a900473ffffffffffffffffffffffffffffffffffffffff166040518263ffffffff1660e01b815260040161409291906154b7565b60206040518083038186803b1580156140aa57600080fd5b505afa1580156140be573d6000803e3d6000fd5b505050506040513d601f19601f820116820180604052506140e29190810190614d49565b90506000600260009054906101000a900473ffffffffffffffffffffffffffffffffffffffff1673ffffffffffffffffffffffffffffffffffffffff166370a08231306040518263ffffffff1660e01b815260040161414191906154d2565b60206040518083038186803b15801561415957600080fd5b505afa15801561416d573d6000803e3d6000fd5b505050506040513d601f19601f820116820180604052506141919190810190614d49565b90506000602d60003373ffffffffffffffffffffffffffffffffffffffff1673ffffffffffffffffffffffffffffffffffffffff16815260200190815260200160002060009054906101000a900473ffffffffffffffffffffffffffffffffffffffff1673ffffffffffffffffffffffffffffffffffffffff166319fa44cd6040518163ffffffff1660e01b8152600401602060405180830381600087803b15801561423c57600080fd5b505af1158015614250573d6000803e3d6000fd5b505050506040513d601f19601f820116820180604052506142749190810190614c69565b9050600081905060008173ffffffffffffffffffffffffffffffffffffffff166370a08231306040518263ffffffff1660e01b81526004016142b691906154d2565b60206040518083038186803b1580156142ce57600080fd5b505afa1580156142e2573d6000803e3d6000fd5b505050506040513d601f19601f820116820180604052506143069190810190614d49565b905060008273ffffffffffffffffffffffffffffffffffffffff166318160ddd6040518163ffffffff1660e01b815260040160206040518083038186803b15801561435057600080fd5b505afa158015614364573d6000803e3d6000fd5b505050506040513d601f19601f820116820180604052506143889190810190614d49565b9050868510156143cd576040517f08c379a00000000000000000000000000000000000000000000000000000000081526004016143c490615772565b60405180910390fd5b600260009054906101000a900473ffffffffffffffffffffffffffffffffffffffff1673ffffffffffffffffffffffffffffffffffffffff166339509351602d60003373ffffffffffffffffffffffffffffffffffffffff1673ffffffffffffffffffffffffffffffffffffffff16815260200190815260200160002060009054906101000a900473ffffffffffffffffffffffffffffffffffffffff16896040518363ffffffff1660e01b8152600401614489929190615591565b602060405180830381600087803b1580156144a357600080fd5b505af11580156144b7573d6000803e3d6000fd5b505050506040513d601f19601f820116820180604052506144db9190810190614cce565b50602d60003373ffffffffffffffffffffffffffffffffffffffff1673ffffffffffffffffffffffffffffffffffffffff16815260200190815260200160002060009054906101000a900473ffffffffffffffffffffffffffffffffffffffff1673ffffffffffffffffffffffffffffffffffffffff1663dd49756e886040518263ffffffff1660e01b81526004016145749190615852565b602060405180830381600087803b15801561458e57600080fd5b505af11580156145a2573d6000803e3d6000fd5b505050506040513d601f19601f820116820180604052506145c69190810190614d49565b506000600260009054906101000a900473ffffffffffffffffffffffffffffffffffffffff1673ffffffffffffffffffffffffffffffffffffffff166370a08231602d60003373ffffffffffffffffffffffffffffffffffffffff1673ffffffffffffffffffffffffffffffffffffffff16815260200190815260200160002060009054906101000a900473ffffffffffffffffffffffffffffffffffffffff166040518263ffffffff1660e01b815260040161468391906154b7565b60206040518083038186803b15801561469b57600080fd5b505afa1580156146af573d6000803e3d6000fd5b505050506040513d601f19601f820116820180604052506146d39190810190614d49565b90506000600260009054906101000a900473ffffffffffffffffffffffffffffffffffffffff1673ffffffffffffffffffffffffffffffffffffffff166370a08231602d60003373ffffffffffffffffffffffffffffffffffffffff1673ffffffffffffffffffffffffffffffffffffffff16815260200190815260200160002060009054906101000a900473ffffffffffffffffffffffffffffffffffffffff166040518263ffffffff1660e01b815260040161479191906154b7565b60206040518083038186803b1580156147a957600080fd5b505afa1580156147bd573d6000803e3d6000fd5b505050506040513d601f19601f820116820180604052506147e19190810190614d49565b905060008573ffffffffffffffffffffffffffffffffffffffff166370a08231306040518263ffffffff1660e01b815260040161481e91906154d2565b60206040518083038186803b15801561483657600080fd5b505afa15801561484a573d6000803e3d6000fd5b505050506040513d601f19601f8201168201806040525061486e9190810190614d49565b905060008673ffffffffffffffffffffffffffffffffffffffff166318160ddd6040518163ffffffff1660e01b815260040160206040518083038186803b1580156148b857600080fd5b505afa1580156148cc573d6000803e3d6000fd5b505050506040513d601f19601f820116820180604052506148f09190810190614d49565b90508a8a850314614936576040517f08c379a000000000000000000000000000000000000000000000000000000000815260040161492d90615672565b60405180910390fd5b8a838a031461497a576040517f08c379a000000000000000000000000000000000000000000000000000000000815260040161497190615632565b60405180910390fd5b8a868303146149be576040517f08c379a00000000000000000000000000000000000000000000000000000000081526004016149b590615732565b60405180910390fd5b8a85820314614a02576040517f08c379a00000000000000000000000000000000000000000000000000000000081526004016149f990615812565b60405180910390fd5b602c60003373ffffffffffffffffffffffffffffffffffffffff1673ffffffffffffffffffffffffffffffffffffffff16815260200190815260200160002060006008815260200190815260200160002060009054906101000a900460ff16614b60576001602c60003373ffffffffffffffffffffffffffffffffffffffff1673ffffffffffffffffffffffffffffffffffffffff16815260200190815260200160002060006008815260200190815260200160002060006101000a81548160ff021916908315150217905550600160009054906101000a900473ffffffffffffffffffffffffffffffffffffffff1673ffffffffffffffffffffffffffffffffffffffff1663158a49883360026040518363ffffffff1660e01b8152600401614b2d929190615568565b600060405180830381600087803b158015614b4757600080fd5b505af1158015614b5b573d6000803e3d6000fd5b505050505b5050505050505050505050565b60006020528060005260406000206000915054906101000a900460ff1681565b602e6020528060005260406000206000915054906101000a900460ff1681565b600081359050614bbc816159c1565b92915050565b600081519050614bd1816159c1565b92915050565b600081519050614be6816159d8565b92915050565b600081359050614bfb816159ef565b92915050565b600081359050614c1081615a06565b92915050565b600081359050614c2581615a1d565b92915050565b600081519050614c3a81615a1d565b92915050565b600060208284031215614c5257600080fd5b6000614c6084828501614bad565b91505092915050565b600060208284031215614c7b57600080fd5b6000614c8984828501614bc2565b91505092915050565b60008060408385031215614ca557600080fd5b6000614cb385828601614bad565b9250506020614cc485828601614c16565b9150509250929050565b600060208284031215614ce057600080fd5b6000614cee84828501614bd7565b91505092915050565b600060208284031215614d0957600080fd5b6000614d1784828501614bec565b91505092915050565b600060208284031215614d3257600080fd5b6000614d4084828501614c01565b91505092915050565b600060208284031215614d5b57600080fd5b6000614d6984828501614c2b565b91505092915050565b614d7b816158ed565b82525050565b614d8a81615889565b82525050565b614d998161589b565b82525050565b614da8816158ff565b82525050565b614db781615923565b82525050565b614dc681615935565b82525050565b614dd581615947565b82525050565b6000614de68261586d565b614df08185615878565b9350614e0081856020860161597d565b614e09816159b0565b840191505092915050565b6000614e21601e83615878565b91507f4578657263696365536f6c7574696f6e206973206e6f74206d696e74657200006000830152602082019050919050565b6000614e61602b83615878565b91507f4576616c7561746f722068617320616e20696e636f727265637420616d6f756e60008301527f74206f6620746f6b656e730000000000000000000000000000000000000000006020830152604082019050919050565b6000614ec7602f83615878565b91507f4578657263696365536f6c7574696f6e45726332302077657265206e6f74206260008301527f75726e656420636f72726563746c7900000000000000000000000000000000006020830152604082019050919050565b6000614f2d603283615878565b91507f4578657263696365536f6c7574696f6e2068617320616e20696e636f7272656360008301527f7420616d6f756e74206f6620746f6b656e7300000000000000000000000000006020830152604082019050919050565b6000614f93601383615878565b91507f4576616c7561746f72206973206d696e746572000000000000000000000000006000830152602082019050919050565b6000614fd3602e83615878565b91507f4e6f20636c61696d61626c6520746f6b656e73206d696e74656420746f20457860008301527f657263696365536f6c7574696f6e0000000000000000000000000000000000006020830152604082019050919050565b6000615039602e83615878565b91507f42616c616e6365206f662073656e646572206e6f74206b65707420696e20457860008301527f657263696365536f6c7574696f6e0000000000000000000000000000000000006020830152604082019050919050565b600061509f602483615878565b91507f546f6b656e73206c6566742068656c64206279204578657263696365536f6c7560008301527f74696f6e000000000000000000000000000000000000000000000000000000006020830152604082019050919050565b6000615105603983615878565b91507f4578657263696365536f6c7574696f6e207374696c6c20616c6c6f776564207460008301527f6f207370656e64206d73672e73656e64657220746f6b656e73000000000000006020830152604082019050919050565b600061516b604483615878565b91507f42616c616e6365206f66204576616c7561746f72206e6f74206372656469746560008301527f6420636f72726563746c7920696e204578657263696365536f6c7574696f6e4560208301527f72633230000000000000000000000000000000000000000000000000000000006040830152606082019050919050565b60006151f7601a83615878565b91507f4576616c7561746f72207761732061626c6520746f206d696e740000000000006000830152602082019050919050565b6000615237602583615878565b91507f4576616c7561746f7220646f6573206e6f7420686f6c6420656e6f756768207460008301527f6f6b656e730000000000000000000000000000000000000000000000000000006020830152604082019050919050565b600061529d601483615878565b91507f53656e64657220686173206e6f20746f6b656e730000000000000000000000006000830152602082019050919050565b60006152dd603683615878565b91507f4578657263696365536f6c7574696f6e206e6f20616c6c6f77656420746f207360008301527f70656e64206d73672e73656e64657220746f6b656e73000000000000000000006020830152604082019050919050565b6000615343601583615878565b91507f4e6f20736f6c7574696f6e207375626d697474656400000000000000000000006000830152602082019050919050565b6000615383602b83615878565b91507f546f6b656e73207374696c6c206372656469746564204578657263696365536f60008301527f6c7574696f6e45726332300000000000000000000000000000000000000000006020830152604082019050919050565b60006153e9602f83615878565b91507f4578657263696365536f6c7574696f6e45726332302077657265206e6f74206d60008301527f696e74656420636f72726563746c7900000000000000000000000000000000006020830152604082019050919050565b600061544f603f83615878565b91507f42616c616e6365206f66204576616c7561746f72206e6f74206372656469746560008301527f6420636f72726563746c7920696e204578657263696365536f6c7574696f6e006020830152604082019050919050565b6154b1816158e3565b82525050565b60006020820190506154cc6000830184614d81565b92915050565b60006020820190506154e76000830184614d72565b92915050565b60006040820190506155026000830185614d72565b61550f6020830184614d81565b9392505050565b600060408201905061552b6000830185614d72565b6155386020830184614dae565b9392505050565b60006040820190506155546000830185614d72565b6155616020830184614dbd565b9392505050565b600060408201905061557d6000830185614d72565b61558a6020830184614dcc565b9392505050565b60006040820190506155a66000830185614d81565b6155b360208301846154a8565b9392505050565b60006020820190506155cf6000830184614d90565b92915050565b60006020820190506155ea6000830184614d9f565b92915050565b6000602082019050818103600083015261560a8184614ddb565b905092915050565b6000602082019050818103600083015261562b81614e14565b9050919050565b6000602082019050818103600083015261564b81614e54565b9050919050565b6000602082019050818103600083015261566b81614eba565b9050919050565b6000602082019050818103600083015261568b81614f20565b9050919050565b600060208201905081810360008301526156ab81614f86565b9050919050565b600060208201905081810360008301526156cb81614fc6565b9050919050565b600060208201905081810360008301526156eb8161502c565b9050919050565b6000602082019050818103600083015261570b81615092565b9050919050565b6000602082019050818103600083015261572b816150f8565b9050919050565b6000602082019050818103600083015261574b8161515e565b9050919050565b6000602082019050818103600083015261576b816151ea565b9050919050565b6000602082019050818103600083015261578b8161522a565b9050919050565b600060208201905081810360008301526157ab81615290565b9050919050565b600060208201905081810360008301526157cb816152d0565b9050919050565b600060208201905081810360008301526157eb81615336565b9050919050565b6000602082019050818103600083015261580b81615376565b9050919050565b6000602082019050818103600083015261582b816153dc565b9050919050565b6000602082019050818103600083015261584b81615442565b9050919050565b600060208201905061586760008301846154a8565b92915050565b600081519050919050565b600082825260208201905092915050565b6000615894826158c3565b9050919050565b60008115159050919050565b6000819050919050565b60006158bc82615889565b9050919050565b600073ffffffffffffffffffffffffffffffffffffffff82169050919050565b6000819050919050565b60006158f882615959565b9050919050565b600061590a82615911565b9050919050565b600061591c826158c3565b9050919050565b600061592e826158e3565b9050919050565b6000615940826158e3565b9050919050565b6000615952826158e3565b9050919050565b60006159648261596b565b9050919050565b6000615976826158c3565b9050919050565b60005b8381101561599b578082015181840152602081019050615980565b838111156159aa576000848401525b50505050565b6000601f19601f8301169050919050565b6159ca81615889565b81146159d557600080fd5b50565b6159e18161589b565b81146159ec57600080fd5b50565b6159f8816158a7565b8114615a0357600080fd5b50565b615a0f816158b1565b8114615a1a57600080fd5b50565b615a26816158e3565b8114615a3157600080fd5b5056fea2646970667358221220caca0a59efcfbbe0647ddae8ad48ffcdf359a8a0c2af61808f59b9144bf03f5c64736f6c63430006020033",
  "source": "pragma solidity ^0.6.0;\npragma experimental ABIEncoderV2;\n\nimport \"./ERC20TD.sol\";\nimport \"./ERC20Claimable.sol\";\nimport \"./IExerciceSolution.sol\";\nimport \"./IERC20Mintable.sol\";\n\ncontract Evaluator \n{\n\n\tmapping(address => bool) public teachers;\n\tERC20TD TDERC20;\n\tERC20Claimable claimableERC20;\n\n\tuint256[20] private randomSupplies;\n\tstring[20] private randomTickers;\n \tuint public nextValueStoreRank;\n\n\n \tmapping(address => mapping(uint256 => bool)) public exerciceProgression;\n \tmapping(address => IExerciceSolution) public studentExerciceSolution;\n \tmapping(address => bool) public hasBeenPaired;\n\n \tevent newRandomTickerAndSupply(string ticker, uint256 supply);\n \tevent constructedCorrectly(address erc20Address, address claimableERC20Address);\n\tconstructor(ERC20TD _TDERC20, ERC20Claimable _claimableERC20) \n\tpublic \n\t{\n\t\tTDERC20 = _TDERC20;\n\t\tclaimableERC20 = _claimableERC20;\n\t\temit constructedCorrectly(address(TDERC20), address(claimableERC20));\n\t}\n\n\tfallback () external payable \n\t{}\n\n\treceive () external payable \n\t{}\n\n\tfunction ex1_claimedPoints()\n\tpublic\n\t{\n\t\t// Check the user has some tokens\n\t\trequire(claimableERC20.balanceOf(msg.sender) > 0, \"Sender has no tokens\");\n\n\t\t// Crediting points\n\t\tif (!exerciceProgression[msg.sender][1])\n\t\t{\n\t\t\texerciceProgression[msg.sender][1] = true;\n\t\t\tTDERC20.distributeTokens(msg.sender, 1);\n\t\t\tTDERC20.distributeTokens(msg.sender, 1);\n\t\t\tTDERC20.distributeTokens(msg.sender, 1);\n\t\t\tTDERC20.distributeTokens(msg.sender, 2);\n\t\t}\n\t}\n\n\tfunction ex2_claimedFromContract()\n\tpublic\n\t{\n\t\t// Checking a solution was submitted\n\t\trequire(exerciceProgression[msg.sender][0], \"No solution submitted\");\n\n\t\t// Checking how many tokens ExerciceSolution holds\n\t\tuint256 solutionInitBalance = claimableERC20.balanceOf(address(studentExerciceSolution[msg.sender]));\n\n\t\t// Claiming tokens through ExerciceSolution\n\t\tstudentExerciceSolution[msg.sender].claimTokensOnBehalf();\n\n\t\t// Verifying ExerciceSolution holds tokens\n\t\tuint256 solutionEndBalance = claimableERC20.balanceOf(address(studentExerciceSolution[msg.sender]));\n\t\trequire(solutionEndBalance - solutionInitBalance == claimableERC20.distributedAmount(), \"No claimable tokens minted to ExerciceSolution\");\n\n\t\t// Verifying ExerciceSolution kept track of our balance\n\t\tstudentExerciceSolution[msg.sender].claimTokensOnBehalf();\n\t\trequire(studentExerciceSolution[msg.sender].tokensInCustody(address(this)) == 2*claimableERC20.distributedAmount(), \"Balance of sender not kept in ExerciceSolution\");\n\n\n\t\t// Crediting points\n\t\tif (!exerciceProgression[msg.sender][2])\n\t\t{\n\t\t\texerciceProgression[msg.sender][2] = true;\n\t\t\tTDERC20.distributeTokens(msg.sender, 2);\n\t\t}\n\t}\n\n\tfunction ex3_withdrawFromContract()\n\tpublic\n\t{\n\t\t// Checking a solution was submitted\n\t\trequire(exerciceProgression[msg.sender][0], \"No solution submitted\");\n\n\t\t// Checking how many tokens ExerciceSolution and Evaluator hold\n\t\tuint256 solutionInitBalance = claimableERC20.balanceOf(address(studentExerciceSolution[msg.sender]));\n\t\tuint256 selfInitBalance = claimableERC20.balanceOf(address(this));\n\t\tuint256 amountToWithdraw = studentExerciceSolution[msg.sender].tokensInCustody(address(this));\n\n\t\t// Withdraw tokens through ExerciceSolution\n\t\tstudentExerciceSolution[msg.sender].withdrawTokens(amountToWithdraw);\n\n\t\t// Verifying tokens where withdrew correctly\n\t\tuint256 solutionEndBalance = claimableERC20.balanceOf(address(studentExerciceSolution[msg.sender]));\n\t\tuint256 selfEndBalance = claimableERC20.balanceOf(address(studentExerciceSolution[msg.sender]));\n\t\tuint256 amountLeft = studentExerciceSolution[msg.sender].tokensInCustody(address(this));\n\n\t\trequire(solutionInitBalance - solutionEndBalance== amountToWithdraw, \"ExerciceSolution has an incorrect amount of tokens\");\n\t\trequire(selfEndBalance - selfInitBalance == amountToWithdraw, \"Evaluator has an incorrect amount of tokens\");\n\t\trequire(amountLeft == 0, \"Tokens left held by ExerciceSolution\");\n\n\t\t// Crediting points\n\t\tif (!exerciceProgression[msg.sender][3])\n\t\t{\n\t\t\texerciceProgression[msg.sender][3] = true;\n\t\t\tTDERC20.distributeTokens(msg.sender, 2);\n\t\t}\n\t}\n\n\tfunction ex4_approvedExerciceSolution()\n\tpublic\n\t{\n\t\t// Checking a solution was submitted\n\t\trequire(exerciceProgression[msg.sender][0], \"No solution submitted\");\n\n\t\trequire(claimableERC20.allowance(msg.sender, address(studentExerciceSolution[msg.sender])) > 0,  \"ExerciceSolution no allowed to spend msg.sender tokens\");\n\n\t\t// Crediting points\n\t\tif (!exerciceProgression[msg.sender][4])\n\t\t{\n\t\t\texerciceProgression[msg.sender][4] = true;\n\t\t\tTDERC20.distributeTokens(msg.sender, 1);\n\t\t}\n\t}\n\n\tfunction ex5_revokedExerciceSolution()\n\tpublic\n\t{\n\t\t// Checking a solution was submitted\n\t\trequire(exerciceProgression[msg.sender][0], \"No solution submitted\");\n\n\t\trequire(claimableERC20.allowance(msg.sender, address(studentExerciceSolution[msg.sender])) == 0, \"ExerciceSolution still allowed to spend msg.sender tokens\");\n\n\t\t// Crediting points\n\t\tif (!exerciceProgression[msg.sender][5])\n\t\t{\n\t\t\texerciceProgression[msg.sender][5] = true;\n\t\t\tTDERC20.distributeTokens(msg.sender, 1);\n\t\t}\n\t}\n\n\tfunction ex6_depositTokens()\n\tpublic\n\t{\n\t\t// Checking a solution was submitted\n\t\trequire(exerciceProgression[msg.sender][0], \"No solution submitted\");\n\n\t\tuint256 amountToDeposit = 100;\n\n\t\t// Checking how many tokens ExerciceSolution and Evaluator hold\n\t\tuint256 solutionInitBalance = claimableERC20.balanceOf(address(studentExerciceSolution[msg.sender]));\n\t\tuint256 selfInitBalance = claimableERC20.balanceOf(address(this));\n\t\tuint256 amountDeposited = studentExerciceSolution[msg.sender].tokensInCustody(address(this));\n\t\trequire(selfInitBalance>= amountToDeposit, \"Evaluator does not hold enough tokens\");\n\n\t\t// Approve student solution to manipulate our tokens\n\t\tclaimableERC20.increaseAllowance(address(studentExerciceSolution[msg.sender]), amountToDeposit);\n\n\t\t// Deposit tokens in student contract\n\t\tstudentExerciceSolution[msg.sender].depositTokens(amountToDeposit);\n\n\t\t// Check balances are correct\n\t\tuint256 solutionEndBalance = claimableERC20.balanceOf(address(studentExerciceSolution[msg.sender]));\n\t\tuint256 selfEndBalance = claimableERC20.balanceOf(address(studentExerciceSolution[msg.sender]));\n\t\tuint256 amountLeft = studentExerciceSolution[msg.sender].tokensInCustody(address(this));\n\n\t\trequire(solutionEndBalance - solutionInitBalance == amountToDeposit, \"ExerciceSolution has an incorrect amount of tokens\");\n\t\trequire(selfInitBalance - selfEndBalance == amountToDeposit, \"Evaluator has an incorrect amount of tokens\");\n\t\trequire(amountLeft - amountDeposited == amountToDeposit, \"Balance of Evaluator not credited correctly in ExerciceSolution\");\n\n\n\t\t// Crediting points\n\t\tif (!exerciceProgression[msg.sender][6])\n\t\t{\n\t\t\texerciceProgression[msg.sender][6] = true;\n\t\t\tTDERC20.distributeTokens(msg.sender, 2);\n\t\t}\n\t}\n\n\tfunction ex7_createERC20()\n\tpublic\n\t{\n\t\t// Checking a solution was submitted\n\t\trequire(exerciceProgression[msg.sender][0], \"No solution submitted\");\n\n\t\t// Get ExerciceSolutionERC20 address\n\t\taddress exerciceSolutionERC20 = studentExerciceSolution[msg.sender].getERC20DepositAddress();\n\t\tIERC20Mintable ExerciceSolutionERC20 = IERC20Mintable(exerciceSolutionERC20);\n\n\t\t// Check that ExerciceSolution is a minter to ExerciceSolutionERC20\n\t\t// Check that we are not a minter to ExerciceSolutionERC20\n\t\trequire(ExerciceSolutionERC20.isMinter(address(studentExerciceSolution[msg.sender])), \"ExerciceSolution is not minter\");\n\t\trequire(!ExerciceSolutionERC20.isMinter(address(this)), \"Evaluator is minter\");\n\n\t\t// Check that we can not mint ExerciceSolutionERC20 tokens \n\t\tbool wasMintAccepted = false;\n\t\ttry ExerciceSolutionERC20.mint(address(this), 10000)\n\t\t{\n\t\t\twasMintAccepted = true;\n        } \n        catch \n        {\n            // This is executed in case revert() was used.\n            wasMintAccepted = false;\n        }\n\n        require(!wasMintAccepted, \"Evaluator was able to mint\");\n\n\t\t// Crediting points\n\t\tif (!exerciceProgression[msg.sender][7])\n\t\t{\n\t\t\texerciceProgression[msg.sender][7] = true;\n\t\t\tTDERC20.distributeTokens(msg.sender, 2);\n\t\t}\n\t}\n\n\tfunction ex8_depositAndMint()\n\tpublic\n\t{\n\t\t// Checking a solution was submitted\n\t\trequire(exerciceProgression[msg.sender][0], \"No solution submitted\");\n\n\t\tuint256 amountToDeposit = 100;\n\n\t\t// Checking how many tokens ExerciceSolution and Evaluator hold\n\t\tuint256 solutionInitBalance = claimableERC20.balanceOf(address(studentExerciceSolution[msg.sender]));\n\t\tuint256 selfInitBalance = claimableERC20.balanceOf(address(this));\n\t\taddress exerciceSolutionERC20 = studentExerciceSolution[msg.sender].getERC20DepositAddress();\n\t\tIERC20Mintable ExerciceSolutionERC20 = IERC20Mintable(exerciceSolutionERC20);\n\t\tuint256 amountDeposited = ExerciceSolutionERC20.balanceOf(address(this));\n\t\tuint256 initWrappedTotalSupply = ExerciceSolutionERC20.totalSupply();\n\t\trequire(selfInitBalance>= amountToDeposit, \"Evaluator does not hold enough tokens\");\n\n\t\t// Approve student solution to manipulate our tokens\n\t\tclaimableERC20.increaseAllowance(address(studentExerciceSolution[msg.sender]), amountToDeposit);\n\n\t\t// Deposit tokens in student contract\n\t\tstudentExerciceSolution[msg.sender].depositTokens(amountToDeposit);\n\n\t\t// Check balances are correct\n\t\tuint256 solutionEndBalance = claimableERC20.balanceOf(address(studentExerciceSolution[msg.sender]));\n\t\tuint256 selfEndBalance = claimableERC20.balanceOf(address(studentExerciceSolution[msg.sender]));\n\t\tuint256 amountLeft = ExerciceSolutionERC20.balanceOf(address(this));\n\t\tuint256 endWrappedTotalSupply = ExerciceSolutionERC20.totalSupply();\n\n\t\trequire(solutionEndBalance - solutionInitBalance == amountToDeposit, \"ExerciceSolution has an incorrect amount of tokens\");\n\t\trequire(selfInitBalance - selfEndBalance == amountToDeposit, \"Evaluator has an incorrect amount of tokens\");\n\t\trequire(amountLeft - amountDeposited == amountToDeposit, \"Balance of Evaluator not credited correctly in ExerciceSolutionErc20\");\n\t\trequire(endWrappedTotalSupply - initWrappedTotalSupply == amountToDeposit, \"ExerciceSolutionErc20 were not minted correctly\");\n\n\t\t// Crediting points\n\t\tif (!exerciceProgression[msg.sender][8])\n\t\t{\n\t\t\texerciceProgression[msg.sender][8] = true;\n\t\t\tTDERC20.distributeTokens(msg.sender, 2);\n\t\t}\n\t}\n\n\tfunction ex9_withdrawAndBurn()\n\tpublic\n\t{\n\t\t// Checking a solution was submitted\n\t\trequire(exerciceProgression[msg.sender][0], \"No solution submitted\");\n\n\t\t// Checking how many tokens ExerciceSolution and Evaluator hold\n\t\tuint256 solutionInitBalance = claimableERC20.balanceOf(address(studentExerciceSolution[msg.sender]));\n\t\tuint256 selfInitBalance = claimableERC20.balanceOf(address(this));\n\t\taddress exerciceSolutionERC20 = studentExerciceSolution[msg.sender].getERC20DepositAddress();\n\t\tIERC20Mintable ExerciceSolutionERC20 = IERC20Mintable(exerciceSolutionERC20);\n\t\tuint256 amountToWithdraw = ExerciceSolutionERC20.balanceOf(address(this));\n\t\tuint256 initWrappedTotalSupply = ExerciceSolutionERC20.totalSupply();\n\n\t\t// Withdraw tokens through ExerciceSolution\n\t\tstudentExerciceSolution[msg.sender].withdrawTokens(amountToWithdraw);\n\n\t\t// Verifying tokens where withdrew correctly\n\t\tuint256 solutionEndBalance = claimableERC20.balanceOf(address(studentExerciceSolution[msg.sender]));\n\t\tuint256 selfEndBalance = claimableERC20.balanceOf(address(studentExerciceSolution[msg.sender]));\n\t\tuint256 amountLeft = ExerciceSolutionERC20.balanceOf(address(this));\n\t\tuint256 endWrappedTotalSupply = ExerciceSolutionERC20.totalSupply();\n\n\t\trequire(solutionInitBalance - solutionEndBalance== amountToWithdraw, \"ExerciceSolution has an incorrect amount of tokens\");\n\t\trequire(selfEndBalance - selfInitBalance == amountToWithdraw, \"Evaluator has an incorrect amount of tokens\");\n\t\trequire(amountLeft == 0, \"Tokens still credited ExerciceSolutionErc20\");\n\t\trequire(initWrappedTotalSupply - endWrappedTotalSupply == amountToWithdraw, \"ExerciceSolutionErc20 were not burned correctly\");\n\n\t\t// Crediting points\n\t\tif (!exerciceProgression[msg.sender][9])\n\t\t{\n\t\t\texerciceProgression[msg.sender][9] = true;\n\t\t\tTDERC20.distributeTokens(msg.sender, 2);\n\t\t}\n\t}\n\n\n\t/* Internal functions and modifiers */ \n\tfunction submitExercice(IExerciceSolution studentExercice)\n\tpublic\n\t{\n\t\t// Checking this contract was not used by another group before\n\t\trequire(!hasBeenPaired[address(studentExercice)]);\n\n\t\t// Assigning passed ERC20 as student ERC20\n\t\tstudentExerciceSolution[msg.sender] = studentExercice;\n\t\thasBeenPaired[address(studentExercice)] = true;\n\n\t\tif (!exerciceProgression[msg.sender][0])\n\t\t{\n\t\t\texerciceProgression[msg.sender][0] = true;\n\t\t\tTDERC20.distributeTokens(msg.sender, 1);\n\t\t}\n\t}\n\n\tmodifier onlyTeachers() \n\t{\n\n\t    require(TDERC20.teachers(msg.sender));\n\t    _;\n\t}\n\n\tfunction _compareStrings(string memory a, string memory b) \n\tinternal \n\tpure \n\treturns (bool) \n\t{\n    \treturn (keccak256(abi.encodePacked((a))) == keccak256(abi.encodePacked((b))));\n\t}\n\n\tfunction bytes32ToString(bytes32 _bytes32) \n\tpublic \n\tpure returns (string memory) \n\t{\n        uint8 i = 0;\n        while(i < 32 && _bytes32[i] != 0) {\n            i++;\n        }\n        bytes memory bytesArray = new bytes(i);\n        for (i = 0; i < 32 && _bytes32[i] != 0; i++) {\n            bytesArray[i] = _bytes32[i];\n        }\n        return string(bytesArray);\n    }\n\n}\n",
  "sourcePath": "/Users/henrilieutaud/Documents/Mes documents/ESILV/03 Blockchain Programmation/erc20-102/contracts/Evaluator.sol",
  "compiler": {
    "name": "solc",
    "version": "0.6.2+commit.bacdbe57.Emscripten.clang"
  },
  "schemaVersion": "3.3.4",
  "updatedAt": "2021-11-19T13:27:09.526Z",
  "networkType": "ethereum",
  "devdoc": {
    "methods": {}
  },
  "userdoc": {
    "methods": {}
  }
}